:100000000C945E000C9486000C9486000C94860080
:100010000C9486000C9486000C9486000C94860048
:100020000C9486000C9486000C9486000C94420D6F
:100030000C9486000C9486000C9486000C94860028
:100040000C94F80C0C9486000C94C60C0C94A00C28
:100050000C9486000C9486000C9486000C94860008
:100060000C9486000C9486000000000024002700F9
:100070002A0000000008000201000003040700003D
:10008000000000000000010204081020408001026E
:1000900004081020010204081020000000002500C0
:1000A00028002B00040404040404040402020202D5
:1000B0000202030303030303FE0D5E1111241FBE9E
:1000C000CFEFD8E0DEBFCDBF11E0A0E0B1E0EAE2C3
:1000D000F6E202C005900D92A83CB107D9F722E0E4
:1000E000A8ECB1E001C01D92A23FB207E1F710E019
:1000F000CDE5D0E004C02197FE010E94DD11CC3592
:10010000D107C9F70E94E70E0C9408130C94000065
:10011000CF92DF92EF92FF920F931F932091DA021A
:100120003091DB0282179307E8F58B0122273327F2
:10013000C52ED62EE72EFF244C2D5091E0025523DC
:1001400071F0E52FF0E0E09FB001E19F700DF09FAE
:10015000700D1124072F5C9D600111244D2DE0913D
:10016000E6022091E1023091E2025091E302E513B0
:1001700020C0BC01660F771F860F971F820F931F49
:10018000E091E302E80FF92FF11D0083E091E40212
:10019000E80FF92FF11D40832091E502820F911D98
:1001A000FC0110821F910F91FF90EF90DF90CF9094
:1001B0000895880F991F880F991F820F931FE80FCA
:1001C000F92FF11D1082DCCFCF92DF92EF92FF92D8
:1001D000DC01A03282E0B807D4F5A53BB10514F0EC
:1001E000A4EBB0E04091D60228E830E0241B3109AE
:1001F00047FD3395220F331F220F331F6901330F41
:10020000EE08FF084091D70228E532E0241B3109AF
:1002100047FD3395220F331F220F331F032E000C8F
:10022000440B550B2C193D094E095F09B7FF02C05D
:10023000B0E0A0E00E94981124EB30E040E050E0F4
:100240000E946E11C20ED31EE41EF51ED601E0916F
:10025000D502EC3080F52091D60288E890E0821B30
:10026000910927FD9395880F991F880F991FA8174B
:10027000B90784F02091D70288E592E0821B9109AA
:1002800027FD9395880F991F880F991FA817B90705
:100290000CF4CD010297880F991F4FB7F8942E2FB9
:1002A00030E0F901EE0FFF1FE20FF31FE856FD4F9C
:1002B000928381834FBFFF90EF90DF90CF9008959E
:1002C000AF92BF92CF92DF92EF92FF920F931F9364
:1002D000CF93DF936C017B018B01040F151FEB01A2
:1002E0005E01AE18BF08C017D10759F06991D60159
:1002F000ED91FC910190F081E02DC6010995892BCB
:1003000079F7C501DF91CF911F910F91FF90EF9089
:10031000DF90CF90BF90AF900895FC01538D448D36
:10032000252F30E0842F90E0821B930B541710F0A0
:10033000CF96089501970895FC01918D828D9817AD
:1003400061F0A28DAE0FBF2FB11D5D968C91928D85
:100350009F5F9F73928F90E008958FEF9FEF0895B6
:10036000FC01918D828D981731F0828DE80FF11D7F
:10037000858D90E008958FEF9FEF0895FC01918D9A
:10038000228D892F90E0805C9F4F821B91098F7393
:10039000992708958BEF91E00E94BE0121E0892BFF
:1003A00009F420E0822F089580E090E0892B29F065
:1003B0000E94CA0181110C9400000895FC01A48DD3
:1003C000A80FB92FB11DA35ABF4F2C91848D90E077
:1003D00001968F739927848FA689B7892C93A0895A
:1003E000B1898C91837080648C93938D848D9813E4
:1003F00006C00288F389E02D80818F7D8083089577
:10040000EF92FF920F931F93CF93DF93EC0181E064
:10041000888F9B8D8C8D98131AC0E889F98980810B
:1004200085FF15C09FB7F894EE89FF896083E8893E
:10043000F98980818370806480839FBF81E090E030
:10044000DF91CF911F910F91FF90EF900895F62EBD
:100450000B8D10E00F5F1F4F0F731127E02E8C8D57
:100460008E110CC00FB607FCFACFE889F98980819C
:1004700085FFF5CFCE010E94DE01F1CFEB8DEC0FB1
:10048000FD2FF11DE35AFF4FF0829FB7F8940B8FB9
:10049000EA89FB8980818062CFCFCF93DF93EC0123
:1004A000888D8823B9F0AA89BB89E889F9898C915C
:1004B00085FD03C0808186FD0DC00FB607FCF7CF18
:1004C0008C9185FFF2CF808185FFEDCFCE010E9418
:1004D000DE01E9CFDF91CF91089590E0FC01EE5865
:1004E000FF4F2491FC01EA57FF4F3491FC01EC557A
:1004F000FF4FE491EE23C9F0222339F0233001F1BC
:10050000A8F4213019F1223029F1F0E0EE0FFF1F9D
:10051000E656FF4FA591B4918FB7F894EC91611115
:1005200026C030953E233C938FBF08952730A9F015
:100530002830C9F0243049F7809180008F7D03C0B6
:10054000809180008F7780938000DFCF84B58F7794
:1005500084BDDBCF84B58F7DFBCF8091B0008F77DA
:100560008093B000D2CF8091B0008F7DF9CF3E2B29
:10057000DACFCF93DF9390E0FC01EA57FF4F24914D
:100580008C559F4FFC0184918823D1F090E0880F17
:10059000991FFC01E859FF4FA591B491FC01E65663
:1005A000FF4FC591D49161110EC09FB7F8948C9103
:1005B000E22FE0958E238C932881E223E8839FBF6E
:1005C000DF91CF9108958FB7F894EC91E22BEC93E3
:1005D0008FBFF6CF8091D5028C3008F051C061E01A
:1005E0008AE00E94B9028091D502282F30E0F901FB
:1005F000EE0FFF1FE20FF31FE856FD4F9081907C36
:100600009A6090831092D6021092D7022CE0622F4B
:100610000E94D111829FB001112430E020E0AB0193
:10062000420F531FFA01EE0FFF1FE40FF51FE856AC
:10063000FD4F908196FD16C02F5F3F4F2C30310546
:1006400071F781110FC01092800082E080938100C9
:100650001092850010928400B19A80916F008260A0
:1006600080936F00E091D5028E2F90E0FC01EE0F99
:10067000FF1FE80FF91FE856FD4F808180648083DB
:100680008091D50208958E3008F08E508770806476
:1006900080937C0080917A00806480937A008091BE
:1006A0007A0086FDFCCF80917800909179000895C2
:1006B0003FB7F8948091CC019091CD01A091CE01EB
:1006C000B091CF0126B5A89B05C02F3F19F0019628
:1006D000A11DB11D3FBFBA2FA92F982F8827BC019C
:1006E000CD01620F711D811D911D42E0660F771FC4
:1006F000881F991F4A95D1F708950F931F93CF93A1
:10070000DF93CDB7DEB729970FB6F894DEBF0FBEE3
:10071000CDBF8091E1029091E202892B09F467C07C
:100720000E9458030091E7021091E8022091E9022B
:100730003091EA02601B710B820B930B6C3271409B
:100740008105910568F3F8948091DC029091DD02B7
:100750009A838983E091E102F091E202DF01119630
:10076000808189879091D802E091EB02F091EC02B0
:100770008091ED02992309F445C09081982B9887C8
:100780009081809589238F838F818C8388E08B83F0
:1007900058856F8149853B812C8189819A8150835D
:1007A00047FD252F3A952083262F39F0441F00C09E
:1007B00000006083000000C0F2CF38E04D916083FC
:1007C0000000019761F7F093EC02E093EB02498798
:1007D0003B832C839A83898378940E945803609387
:1007E000E7027093E8028093E9029093EA02299667
:1007F0000FB6F894DEBF0FBECDBFDF91CF911F9132
:100800000F9108959081982B9887908180958923E6
:100810008F838F818E8388E08D8358856F81498592
:100820003D812E8189819A81508347FD252F00C00B
:1008300000C0208300C000C000C000C000C06083B2
:100840000000262F3A9541F0441F000000C000C070
:1008500000C000C000C0E8CF38E04D9100C0608308
:1008600000C0019709F7F093EC02E093EB0249878F
:100870003D832E83AFCF8F929F92AF92BF92CF9244
:10088000DF92EF92FF924B015C010E9458036B01D3
:100890007C010E9458036C197D098E099F09683EEE
:1008A000734081059105A8F321E0821A9108A108FF
:1008B000B10888EEC80E83E0D81EE11CF11C81143B
:1008C0009104A104B10429F7FF90EF90DF90CF903D
:1008D000BF90AF909F908F900895089590E080E032
:1008E0000895CF93DF93EC0160E08E810E946D024A
:1008F00061E08E810E946D0260E08E810E946D0237
:100900008BE891E00197F1F7DF91CF910895CF92B5
:10091000DF92EF92FF920F931F93CF93DF936C01BF
:100920007C0187E0E80EF11CD0E0C0E0062F10E06B
:10093000B8010C2E02C0759567950A94E2F76170B4
:10094000F70181917F010E946D022196C430D1058B
:1009500079F7C601DF91CF911F910F91FF90EF9032
:10096000DF90CF900C947104CF92DF92EF92FF92C0
:100970000F931F93CF93DF93EC01F62E642F8C819E
:100980000E946D028D818F3F19F060E00E946D0220
:100990000F2D10E08F8584FF25C06E0187E0C80E03
:1009A000D11CF12CE12CB8010E2C02C07595679575
:1009B0000A94E2F76170F60181916F010E946D0265
:1009C000FFEFEF1AFF0A88E0E816F10461F7CE01A5
:1009D000DF91CF911F910F91FF90EF90DF90CF901B
:1009E0000C947104B80184E0759567958A95E1F7D8
:1009F000CE010E9487046F2DCE01DF91CF911F9110
:100A00000F91FF90EF90DF90CF900C94870440E01F
:100A1000682F8DEB92E00C94B40481E00E940705EE
:100A20008BE39FE10197F1F70895CF93DF93823035
:100A300029F49091CC0298609093CC028093D002DC
:100A40001092D10280E48093D20280E18093D3029D
:100A500080E58093D40261E08091C1020E94B902D6
:100A60008091C2028F3F19F061E00E94B90261E0FB
:100A70008091C3020E94B902CDEBD2E09E012D5BB2
:100A800032408091CC0284FD0BC084E090E021963E
:100A90002817390744F461E08E810E94B902EECF35
:100AA00088E090E0F4CF8BE39DE00197F1F760E000
:100AB0008091C1020E946D0260E08091C3020E9499
:100AC0006D028091C2028F3F19F060E00E946D02BA
:100AD0008091CC0284FD34C063E08DEB92E00E94F3
:100AE0008704CBE4D6E4CE010197F1F763E08DEB08
:100AF00092E00E9487042197F1F763E08DEB92E08A
:100B00000E94870483E592E00197F1F762E08DEBA4
:100B100092E00E9487048091CC0280620E940705C7
:100B200084E08093CD028CE00E9407050E940D05B1
:100B300082E08093CE0286E0DF91CF910C9407058E
:100B400080620E9407058BE496E40197F1F780919B
:100B5000CC0280620E94070583E592E00197F1F7DD
:100B60008091CC0280620E940705D5CF9091D0027F
:100B7000691710F06FEF690FE62FF0E0E354FD4FB7
:100B80009489890F80680C94070541E00E94B404A1
:100B900081E090E00895FB0101900020E9F7319792
:100BA000AF01461B570BDC01ED91FC910280F381F4
:100BB000E02D09948F929F92AF92BF920F931F9353
:100BC000CF93DF93CDB7DEB7A1970FB6F894DEBF12
:100BD0000FBECDBF19A2423008F44AE08E010F5D6E
:100BE0001F4F842E912CB12CA12CA50194010E94A1
:100BF000A011E62FB901CA01EA3004F5E05DD80181
:100C0000EE938D01232B242B252B79F790E080E0A8
:100C1000109729F0BD018BEF91E00E94CB05A196C2
:100C20000FB6F894DEBF0FBECDBFDF91CF911F91FD
:100C30000F91BF90AF909F908F900895E95CDFCFA8
:100C4000BC018DEB92E00C94CB05CF93DF938091A8
:100C5000E4019091E5010197B9F58091E10190914E
:100C6000E201019789F58091DE019091DF01019702
:100C700059F58091DB019091DC01019729F5809174
:100C8000D8019091D9010197F9F48091D501909103
:100C9000D60181309105C1F49093C9018093C801B8
:100CA00040E05AE060E070E086E090E00E9488005A
:100CB0000E947D030E940D0560E080E00E94B60561
:100CC0008EE491E00E942006C1E0D0E0D093C901FB
:100CD000C093C80140E05AE060E070E086E090E038
:100CE0000E9488000E947D030E940D0560E080E064
:100CF0000E94B6058AE591E00E94200661E080E04E
:100D00000E94B60587E691E00E9420060E94EA0252
:100D10008DE290E00E94E40068EE73E080E090E0F5
:100D20000E943B04E091D5028E2F90E0FC01EE0F73
:100D3000FF1FE80FF91FE856FD4F80818F7B8083EE
:100D40008091DE019091DF01892BC1F460E086E0A3
:100D50000E946D0240E05AE060E070E082E090E0C6
:100D60000E9488000E947D03D093DF01C093DE01C2
:100D700064EF71E080E090E00E943B048091E40128
:100D80009091E501892BD1F460E082E10E946D022F
:100D900040E05AE060E070E090E080E00E9488006F
:100DA0000E947D0381E090E09093E5018093E4014F
:100DB00064EF71E080E090E00E943B048091E101EB
:100DC0009091E201892BD1F460E083E10E946D02F1
:100DD00040E05AE060E070E081E090E00E9488002E
:100DE0000E947D0381E090E09093E2018093E10115
:100DF00064EF71E080E090E00E943B048091DB01B1
:100E00009091DC01892BD1F460E088E00E946D02B2
:100E100040E05AE060E070E083E090E00E948800EB
:100E20000E947D0381E090E09093DC018093DB01E0
:100E300064EF71E080E090E00E943B048091D80173
:100E40009091D901892BD1F460E089E00E946D0274
:100E500040E05AE060E070E084E090E00E948800AA
:100E60000E947D0381E090E09093D9018093D801A6
:100E700064EF71E080E090E00E943B048091D50136
:100E80009091D601892BA1F460E08DE00E946D0263
:100E900040E05AE060E070E085E090E00E94880069
:100EA0000E947D0381E090E09093D6018093D5016C
:100EB00081E090E09093F9018093F801DF91CF9168
:100EC0000C940D05CF931092C9011092C8010E9495
:100ED0000D0560E080E00E94B60584E791E00E9485
:100EE000200661E080E00E94B60587E691E00E945E
:100EF000200661E08DE00E946D02C091FA01C230CF
:100F000038F440E050E0BA0185E090E00E948800AB
:100F10000E947D038091D5019091D601019771F4D3
:100F20001092D6011092D50161E089E00E946D0215
:100F300064EF71E080E090E00E943B04C23038F43E
:100F400040E050E0BA0184E090E00E9488000E94F6
:100F50007D038091D8019091D901019771F410928D
:100F6000D9011092D80161E088E00E946D0264EF1F
:100F700071E080E090E00E943B04C23038F440E031
:100F800050E0BA0183E090E00E9488000E947D0357
:100F90008091DB019091DC01019771F41092DC01EA
:100FA0001092DB0161E083E10E946D0264EF71E069
:100FB00080E090E00E943B04C23038F440E050E012
:100FC000BA0181E090E00E9488000E947D03809138
:100FD000E1019091E201019771F41092E201109207
:100FE000E10161E082E10E946D0264EF71E080E066
:100FF00090E00E943B04C23038F440E050E0BA0177
:1010000090E080E00E9488000E947D038091E401CE
:101010009091E501019771F41092E5011092E401BD
:1010200061E086E00E946D0264EF71E080E090E094
:101030000E943B04C13009F045C040E050E0BA01D5
:1010400082E090E00E94880040E050E06AE070E0BA
:1010500086E090E00E9488000E947D031092DF01EC
:101060001092DE010E94EA028DE790E00E94E40007
:1010700068EE73E080E090E00E943B04E091D502CE
:101080008E2F90E0FC01EE0FFF1FE80FF91FE856CE
:10109000FD4F80818F7B80838091F8019091F901D1
:1010A000019731F41092F9011092F8011092FA01AF
:1010B0000E940D0581E090E09093F7018093F60186
:1010C000CF910895C111C8CF40E050E0BA0182E04D
:1010D00090E00E94880040E05AE06AE070E0B8CFFB
:1010E0008091F8019091F901039779F48091FA01C8
:1010F000813059F48091D401811107C060E00E94D1
:10110000B60583E891E00E9420068091F801909155
:10111000F901029740F460E080E00E94B60581E9A1
:1011200091E00E9420068091F8019091F9010297C8
:1011300008F095C08091E4019091E501019741F498
:1011400061E080E00E94B60582EA91E00E942006FC
:101150008091E4019091E501892B41F461E080E008
:101160000E94B60584EA91E00E9420068091E10188
:101170009091E2018130910509F044C061E082E084
:101180000E94B60582EA91E00E9420068091DE016D
:101190009091DF0181309105F1F561E084E00E94DA
:1011A000B60582EA91E00E9420068091DB019091D1
:1011B000DC0181309105C1F561E086E00E94B60551
:1011C00082EA91E00E9420068091D8019091D90195
:1011D0008130910591F561E088E00E94B60582EAD0
:1011E00091E00E9420068091D5019091D601813036
:1011F000910561F561E08AE00E94B60582EA91E01E
:101200000C942006892B11F661E082E00E94B6055D
:1012100084EA91E0B9CF892B41F661E084E00E9435
:10122000B60584EA91E0BFCF892B71F661E086E0D4
:101230000E94B60584EA91E0C5CF892BA1F661E052
:1012400088E00E94B60584EA91E0CBCF892B39F47F
:1012500061E08AE00E94B60584EA91E0D1CF08956A
:101260008091F4019091F5018F3F914004F58091B8
:10127000F8019091F9010397D1F08091D8019091F4
:10128000D9010197A1F461E089E00E946D0240E07C
:1012900050E06AE070E084E090E00E9488000E94E4
:1012A0007D031092D9011092D8010E94700880919C
:1012B000F4019091F501873F914004F58091F80188
:1012C0009091F9010397D1F08091DE019091DF01B7
:1012D0000197A1F461E086E00E946D0240E050E0D9
:1012E0006AE070E082E090E00E9488000E947D0346
:1012F0001092DF011092DE010E9470088091F401CB
:101300009091F501803F91407CF48091FA01811128
:101310000BC081E08093FA0183E090E09093F901A3
:101320008093F8010E9462078091F4019091F50189
:101330008530924064F01092FA018091F80190910A
:10134000F901039721F41092F9011092F801089520
:101350008091E701813009F088C18091E6018130F8
:10136000E9F58091E4019091E5018130910509F062
:10137000BBC18091C8019091C9010197A1F461E0BE
:1013800082E10E946D0240E05AE06AE070E090E085
:1013900080E00E9488000E947D031092E501109277
:1013A000E4010E9470088091C8019091C901892BC5
:1013B00099F461E082E10E946D0240E050E0BA01E0
:1013C00090E080E00E9488000E947D031092E50179
:1013D0001092E4010E9470081092E6018091E301EE
:1013E0008130E9F58091E1019091E2018130910530
:1013F00009F0ACC18091C8019091C9010197A1F495
:1014000061E083E10E946D0240E05AE06AE070E032
:1014100081E090E00E9488000E947D031092E2012A
:101420001092E1010E9470088091C8019091C90159
:10143000892B99F461E083E10E946D0240E050E065
:10144000BA0181E090E00E9488000E947D03109222
:10145000E2011092E1010E9470081092E301809174
:10146000E0018130E9F58091DE019091DF0181306A
:10147000910509F09DC18091C8019091C901019722
:10148000A1F461E086E00E946D0240E05AE06AE06B
:1014900070E082E090E00E9488000E947D0310923C
:1014A000DF011092DE010E9470088091C8019091C6
:1014B000C901892B99F461E086E00E946D0240E049
:1014C00050E0BA0182E090E00E9488000E947D0313
:1014D0001092DF011092DE010E9470081092E0016C
:1014E0008091DD018130E9F58091DB019091DC0193
:1014F0008130910509F08EC18091C8019091C90198
:101500000197A1F461E088E00E946D0240E05AE09A
:101510006AE070E083E090E00E9488000E947D0312
:101520001092DC011092DB010E9470088091C801CA
:101530009091C901892B99F461E088E00E946D02C5
:1015400040E050E0BA0183E090E00E9488000E94F1
:101550007D031092DC011092DB010E947008109252
:10156000DD018091DA018130E9F58091D801909117
:10157000D9018130910509F07FC18091C801909116
:10158000C9010197A1F461E089E00E946D0240E089
:101590005AE06AE070E084E090E00E9488000E94D7
:1015A0007D031092D9011092D8010E947008809199
:1015B000C8019091C901892B99F461E089E00E94EA
:1015C0006D0240E050E0BA0184E090E00E948800A3
:1015D0000E947D031092D9011092D8010E947008D8
:1015E0001092DA018091D7018130E9F58091D5011F
:1015F0009091D6018130910509F070C18091C801A8
:101600009091C9010197A1F461E08DE00E946D0203
:1016100040E05AE06AE070E085E090E00E948800D7
:101620000E947D031092D6011092D5010E9470088D
:101630008091C8019091C901892B99F461E08DE0F6
:101640000E946D0240E050E0BA0185E090E00E9407
:1016500088000E947D031092D6011092D5010E944D
:1016600070081092D7011092E7018091E4019091E7
:10167000E501892BC1F58091E1019091E201892B6F
:1016800091F58091DE019091DF01892B61F58091C8
:10169000DB019091DC01892B31F58091D80190918B
:1016A000D901892B01F58091D5019091D601892B23
:1016B000D1F40E94EA028DE790E00E94E40068EE17
:1016C00073E080E090E00E943B04E091D5028E2F11
:1016D00090E0FC01EE0FFF1FE80FF91FE856FD4FE9
:1016E00080818F7B80830895892B09F075CE0E94BD
:1016F000EA028DE290E00E94E40068EE73E080E090
:1017000090E00E943B04E091D5028E2F90E0FC0116
:10171000EE0FFF1FE80FF91FE856FD4F80818F7B0A
:10172000808360E082E10E946D0240E05AE060E068
:1017300070E090E080E00E9488000E947D0381E0DC
:1017400090E09093E5018093E40144CE892B09F069
:1017500084CE0E94EA028DE290E00E94E40068EEEE
:1017600073E080E090E00E943B04E091D5028E2F70
:1017700090E0FC01EE0FFF1FE80FF91FE856FD4F48
:1017800080818F7B808360E083E10E946D0240E076
:101790005AE060E070E081E090E00E9488000E94E2
:1017A0007D0381E090E09093E2018093E10153CECC
:1017B000892B09F093CE0E94EA028DE290E00E940C
:1017C000E40068EE73E080E090E00E943B04E0916A
:1017D000D5028E2F90E0FC01EE0FFF1FE80FF91FDE
:1017E000E856FD4F80818F7B808360E086E00E9419
:1017F0006D0240E05AE060E070E082E090E00E941C
:1018000088000E947D0381E090E09093DF01809347
:10181000DE0162CE892B09F0A2CE0E94EA028DE29F
:1018200090E00E94E40068EE73E080E090E00E94A7
:101830003B04E091D5028E2F90E0FC01EE0FFF1FDC
:10184000E80FF91FE856FD4F80818F7B808360E0B1
:1018500082E10E946D0240E05AE060E070E083E0C7
:1018600090E00E9488000E947D0381E090E09093C8
:10187000DC018093DB0171CE892B09F0B1CE0E948F
:10188000EA028DE290E00E94E40068EE73E080E0FE
:1018900090E00E943B04E091D5028E2F90E0FC0185
:1018A000EE0FFF1FE80FF91FE856FD4F80818F7B79
:1018B000808360E089E00E946D0240E05AE060E0D1
:1018C00070E084E090E00E9488000E947D0381E047
:1018D00090E09093D9018093D80180CE892B09F0B4
:1018E000C0CE0E94EA028DE290E00E94E40068EE21
:1018F00073E080E090E00E943B04E091D5028E2FDF
:1019000090E0FC01EE0FFF1FE80FF91FE856FD4FB6
:1019100080818F7B808360E082E10E946D0240E0E5
:101920005AE060E070E085E090E00E9488000E944C
:101930007D0381E090E09093D6018093D5018FCE16
:101940001F920F920FB60F9211242F933F934F9334
:101950005F936F937F938F939F93AF93BF93EF9317
:10196000FF938BEF91E00E94DE01FF91EF91BF9119
:10197000AF919F918F917F916F915F914F913F9127
:101980002F910F900FBE0F901F9018951F920F92DE
:101990000FB60F9211242F938F939F93EF93FF9382
:1019A000E0910B02F0910C028081E0911102F09124
:1019B000120282FD1BC09081809114028F5F8F7391
:1019C00020911502821741F0E0911402F0E0E550F9
:1019D000FE4F958F80931402FF91EF919F918F910D
:1019E0002F910F900FBE0F901F9018958081F4CF0C
:1019F0001F920F920FB60F9211242F933F938F9344
:101A00009F93AF93BF938091D0019091D101A0910A
:101A1000D201B091D3013091CB0123E0230F2D37B8
:101A200058F50196A11DB11D2093CB018093D001E3
:101A30009093D101A093D201B093D3018091CC01B6
:101A40009091CD01A091CE01B091CF010196A11D41
:101A5000B11D8093CC019093CD01A093CE01B093A2
:101A6000CF01BF91AF919F918F913F912F910F9097
:101A70000FBE0F901F90189526E8230F0296A11D08
:101A8000B11DD2CF1F920F920FB60F9211242F9338
:101A90003F934F935F936F937F938F939F93AF93F6
:101AA000BF93CF93DF93EF93FF938091CA01C091CF
:101AB000BC02D0E087FF24C0109285001092840001
:101AC0008091CA018F5F8093CA018091CA01082E5C
:101AD000000C990B8C179D0724F48091CA018C305F
:101AE000C4F18091840090918500049680349C49D3
:101AF00008F47AC08091840090918500049676C0A5
:101B00008091CA01082E000C990B8C179D07C4F612
:101B1000E091CA018E2FEE0F990BFC01EE0FFF1F13
:101B2000E80FF91FE856FD4F808186FFC9CFE0918D
:101B3000CA018E2FEE0F990BFC01EE0FFF1FE80F6D
:101B4000F91FE856FD4F808160E08F730E946D029F
:101B5000B7CF2091840030918500E091CA018E2F8B
:101B6000EE0F990BFC01EE0FFF1FE80FF91FE8566F
:101B7000FD4F81819281820F931F90938900809302
:101B80008800E091CA018E2FEE0F990BFC01EE0F39
:101B9000FF1FE80FF91FE856FD4F808186FF11C037
:101BA000E091CA018E2FEE0F990BFC01EE0FFF1F83
:101BB000E80FF91FE856FD4F808161E08F730E94A6
:101BC0006D02FF91EF91DF91CF91BF91AF919F9106
:101BD0008F917F916F915F914F913F912F910F90D6
:101BE0000FBE0F901F90189580E49CE99093890098
:101BF000809388008FEF8093CA01E3CF1092FE019B
:101C00001092FD0188EE93E0A0E0B0E08093FF0128
:101C100090930002A0930102B093020284E391E04A
:101C20009093FC018093FB0185EC90E09093080277
:101C30008093070284EC90E090930A02809309025B
:101C400080EC90E090930C0280930B0281EC90E08A
:101C500090930E0280930D0282EC90E0909310021C
:101C600080930F0286EC90E0909312028093110211
:101C7000109214021092150210921602109217027E
:101C80001092D9021092E0021092E7021092E8023C
:101C90001092E9021092EA0281E08093E6028093BA
:101CA000E3021092E40292E09093E5028093D8025E
:101CB00085E190E09093DD028093DC020E94E311C5
:101CC0009093E2028093E102009709F473C025E14A
:101CD000FC0111922A95E9F787E090E09093DB02EE
:101CE0008093DA0285E090E09093DF028093DE0239
:101CF0008091D902882341F061E085E00E94B90219
:101D000060E085E00E946D02E9EAF0E0E491F0E035
:101D1000EE0FFF1FE656FF4F859194919093EC02D2
:101D20008093EB02EBE8F0E0E491E093ED02809128
:101D3000BC028C3008F047C091E0980F9093BC0231
:101D40008093D50290E0FC01EE0FFF1FE80FF91F12
:101D5000E856FD4F88EB9BE0928381831092C0028E
:101D60001092BF0286E491E09093BE028093BD0280
:101D70008CE08093C1028FEF8093C20287E0809352
:101D8000C3028BE08093C40284E08093C50283E0A9
:101D90008093C60282E08093C7021092C80210921C
:101DA000C9021092CA021092CB021092CC0281E0BA
:101DB0000C9415051092DD021092DC021092DB02E9
:101DC0001092DA028FCF8FEF8093D502C7CF78942D
:101DD00084B5826084BD84B5816084BD85B5826030
:101DE00085BD85B5816085BD80916E0081608093E1
:101DF0006E0010928100809181008260809381004A
:101E00008091810081608093810080918000816059
:101E1000809380008091B10084608093B1008091B4
:101E2000B00081608093B00080917A0084608093DC
:101E30007A0080917A00826080937A0080917A00A3
:101E4000816080937A0080917A00806880937A0024
:101E50001092C1008091DE029091DF0297FD08C0D0
:101E600061E00E94B90260E08091DE020E946D0292
:101E700081E08093D90282E00E941505E0910B0277
:101E8000F0910C0282E08083E0910702F091080259
:101E90001082E0910902F0910A028FEC8083109287
:101EA0001302E0910F02F091100286E08083E0912E
:101EB0000D02F0910E02808180618083E0910D021D
:101EC000F0910E02808188608083E0910D02F09194
:101ED0000E02808180688083E0910D02F0910E02F5
:101EE00080818F7D8083E091D5028E2F90E0FC0170
:101EF000EE0FFF1FE80FF91FE856FD4F80818F7B23
:101F0000808361E082E10E94B90260E087E00E9484
:101F1000B90261E083E00E94B90260E080E00E94C3
:101F2000B90261E082E10E94B90281E090E0909301
:101F3000F9018093F8010E94250600E311E0C0E05A
:101F4000D0E02FB7F8948091D0019091D101A09169
:101F5000D201B091D3012FBF4091F0015091F10116
:101F60006091F2017091F301481759076A077B07E6
:101F700009F40CC180E00E9443039093EF01809329
:101F8000EE012091EA013091EB014091EC0150917A
:101F9000ED018417950709F08EC11216130634F46B
:101FA000215031093093EB012093EA01C090EA01FE
:101FB000D090EB010D2C000CEE08FF084AE0C701A1
:101FC000B601F7FE0DC06DE28BEF91E00E940002BA
:101FD00066277727CB016C197D098E099F094AE096
:101FE0000E94DA0566EA71E08BEF91E00E94CB0572
:101FF0008091EA019091EB0102970CF4B4C0109229
:10200000EB011092EA018091EE019091EF01909323
:10201000ED018093EC01181619060CF0A4C086E0BF
:10202000E82E81E0F82E8091EE019091EF01F7010A
:1020300022813381821793070CF48EC0248135816D
:10204000281739070CF488C0808191819093E901A9
:102050008093E8012091FA012111F3C0019769F4FE
:1020600081E08093E7018093E6018091E401909103
:10207000E5010297A8F40E94A8098091E8019091D7
:10208000E901029769F481E08093E7018093E3011D
:102090008091E1019091E2010297A8F40E94A809C1
:1020A0008091E8019091E901039769F481E08093C0
:1020B000E7018093E0018091DE019091DF010297BA
:1020C000A8F40E94A8098091E8019091E901049781
:1020D00069F481E08093E7018093DD018091DB0169
:1020E0009091DC010297A8F40E94A8098091E80170
:1020F0009091E901059769F481E08093E70180936D
:10210000DA018091D8019091D9010297A8F40E9438
:10211000A8098091E8019091E901069769F481E0AE
:102120008093E7018093D7018091D5019091D601EA
:10213000029710F40E94A8098091E8019091E901AA
:10214000079709F07EC08091F8019091F9010097FE
:1021500009F070C00E942506F6E0EF0EF11C0E1586
:102160001F0509F060CF2FB7F8948091D0019091AE
:10217000D101A091D201B091D3012FBF8093F00182
:102180009093F101A093F201B093F3010E947008C3
:102190008FE00E9443039093F5018093F4016C015A
:1021A000990FEE08FF084AE0C701B601F7FE0DC01F
:1021B0006DE28BEF91E00E94000266277727CB014A
:1021C0006C197D098E099F094AE00E94DA0566EACA
:1021D00071E08BEF91E00E94CB050E9430090E94D4
:1021E00030098091FA0181111AC08091F801909113
:1021F000F9010397A4F48091F6019091F7010197FA
:1022000071F41092F7011092F60140E05AE06AE092
:1022100070E086E090E00E9488000E947D03209795
:1022200009F48FCE0E94CA01882309F48ACE0E9445
:10223000000087CE019729F41092FA010E946207EC
:102240008BCF8091FA01813009F086CF2091E8018F
:102250003091E9012730310509F07ECF2091F80156
:102260003091F9012330310509F076CF8093D40104
:102270000E940D0560E080E00E94B60589EA91E0C9
:102280000E94200661E080E00E94B60589EB91E0A3
:102290000E94200668E873E180E090E00E943B0421
:1022A0000E940D0560E080E00E94B60583E891E0A1
:1022B0000E94200651CF2F5F3F4F74CE8091E102E4
:1022C0009091E2020E947F128091DE029091DF02E3
:1022D00097FD03C060E00C94B9020895052E97FBAA
:1022E0001EF400940E94851157FD07D00E94A01192
:1022F00007FC03D04EF40C94851150954095309511
:1023000021953F4F4F4F5F4F089590958095709561
:1023100061957F4F8F4F9F4F08950E94C211A59FD7
:10232000900DB49F900DA49F800D911D11240895D0
:10233000B7FF0C948D110E948D11821B930B089591
:10234000A1E21A2EAA1BBB1BFD010DC0AA1FBB1FB9
:10235000EE1FFF1FA217B307E407F50720F0A21B2B
:10236000B30BE40BF50B661F771F881F991F1A9498
:1023700069F760957095809590959B01AC01BD01C2
:10238000CF010895A29FB001B39FC001A39F700D1C
:10239000811D1124911DB29F700D811D1124911D6D
:1023A0000895991B79E004C0991F961708F0961BB1
:1023B000881F7A95C9F780950895EE0FFF1F059045
:1023C000F491E02D09940F931F93CF93DF93823004
:1023D000910510F482E090E0E091F002F091F102BA
:1023E00030E020E0B0E0A0E0309799F4211531050D
:1023F00009F44AC0281B390B24303105D8F58A81ED
:102400009B816115710589F1FB0193838283FE0134
:1024100011C0408151810281138148175907E0F0B2
:102420004817590799F4109761F012960C93129778
:1024300013961C933296CF01DF91CF911F910F918C
:1024400008950093F0021093F102F4CF21153105A5
:1024500051F04217530738F0A901DB019A01BD0181
:10246000DF01F801C1CFEF01F9CF9093F102809322
:10247000F002CDCFFE01E20FF31F81939193225022
:10248000310939832883D7CF2091EE023091EF02B2
:10249000232B41F420910201309103013093EF028C
:1024A0002093EE02209100013091010121153105A8
:1024B00041F42DB73EB74091040150910501241B12
:1024C000350BE091EE02F091EF02E217F307A0F472
:1024D0002E1B3F0B2817390778F0AC014E5F5F4F7A
:1024E0002417350748F04E0F5F1F5093EF024093BB
:1024F000EE02819391939FCFF0E0E0E09CCFCF93E9
:10250000DF930097E9F0FC01329713821282A091C9
:10251000F002B091F102ED0130E020E01097A1F45B
:1025200020813181820F931F2091EE023091EF02C2
:102530002817390709F061C0F093EF02E093EE022B
:10254000DF91CF910895EA01CE17DF07E8F54A81C0
:102550005B819E0141155105B1F7E901FB83EA83D7
:1025600049915991C40FD51FEC17FD0761F4808183
:1025700091810296840F951FE90199838883828156
:1025800093819B838A83F0E0E0E012968D919C9189
:1025900013970097B9F52D913C911197CD010296B3
:1025A000820F931F2091EE023091EF022817390716
:1025B00039F6309751F51092F1021092F002B09373
:1025C000EF02A093EE02BCCFD383C283408151813E
:1025D000840F951FC817D90761F44E5F5F4F88813C
:1025E0009981480F591F518340838A819B8193832E
:1025F00082832115310509F0B0CFF093F102E09309
:10260000F0029ECFFD01DC01C0CF13821282D7CF32
:1026100010E0CDE5D0E004C0FE010E94DD1121965E
:0A262000CE35D107C9F7F894FFCFBB
:10262A000000F2028000010020035C030200A802FD
:10263A00D0020300E40216030400C80004010500E6
:10264A003A004500060025003B000700050024006B
:10265A0000000000000260018D014D02BE019C01D4
:10266A00B00100000000C50560016E046D04414C14
:10267A005245414459204F4E2100504F5745524927
:10268A004E472055502100504C4541534520574153
:10269A0049542100504F574552494E4720444F57FD
:1026AA004E2100454D455247454E4359204F464617
:1026BA000031203220332034203520362020505754
:1026CA005200310030000D0A0043414E4E4F542053
:1026DA00504F574552205550004241545445525983
:0826EA0020544F204C4F570013
:00000001FF
