:100000000C94D3000C94FB000C94FB000C94FB00AC
:100010000C94FB000C94FB000C94FB000C94FB0074
:100020000C94FB000C94FB000C94C1060C9430075C
:100030000C94FB000C94FB000C94FB000C94FB0054
:100040000C94FB000C94FB000C94FB000C94FB0044
:100050000C94FB000C94FB000C94FB000C946209C4
:100060000C94FB000C94FB000C94FB000C94FB0024
:100070000C94FB000C94FB000C94FB000C94FB0014
:100080000C94FB000C94FB000C94FB000C94FB0004
:100090000C94FB000C94FB000C94FB000C94FB00F4
:1000A0000C94FB000C94FB000C94FB000706050469
:1000B0000100080A0B0C0D090000000200090F00E6
:1000C00000030401000C000000000000000000001C
:1000D00000000000000000080B00020202000009FE
:1000E00004000001020200000524001001052401A3
:1000F00001010424020605240600010705810310FE
:10010000004009040100020A000000070502024045
:1001100000000705830240000004030904120100E7
:1001200002EF020140412337800001010203014137
:10013000726475696E6F204C4C430041726475693E
:100140006E6F204D6963726F00000000002500286B
:10015000002B002E00310000000000240027002AA0
:10016000002D00300004040404040304050202020C
:100170000204030202020206060606060604040240
:100180000202040404080201104080401020408054
:1001900040800802040180402010020110801020DD
:1001A00040402000AC0911241FBECFEFDAE0DEBFD3
:1001B000CDBF11E0A0E0B1E0E4ECFBE102C00590AE
:1001C0000D92A235B107D9F721E0A2E5B1E001C057
:1001D0001D92A93EB207E1F710E0C3EDD0E004C0E4
:1001E0002197FE010E94DA0DC23DD107C9F70E9496
:1001F000DE090C94E00D0C94000090E0FC01EC573B
:10020000FE4F24918B599E4FFC018491882399F0D5
:1002100090E0880F991FFC01E95AFE4FA591B49117
:10022000FC01E75BFE4F859194918FB7F894EC91B8
:10023000E22BEC938FBF0895FC018091800188230D
:1002400011F13FB7F89482E08093E9002091F20029
:10025000822F90E01816190614F481E090E08823AC
:1002600039F0289A44E640937F014091F1004083A1
:10027000222339F02091F200211103C02BE62093B4
:10028000E8003FBF08958FEF9FEF08952FB7F894D0
:1002900083E08093E9009091E800892F807295FFB8
:1002A00004C09091F20080E4891B2FBF08958091D3
:1002B000770181110DC082E08093730184E0809307
:1002C0007401109276011092750181E0809377019C
:1002D00083E791E00895CF93DF931F92CDB7DEB708
:1002E0006983DC01ED91FC910280F381E02D41E016
:1002F00050E0BE016F5F7F4F09950F90DF91CF9166
:10030000089583E08093E9008091F200882319F03A
:100310008AE38093E80008950E94460190E00895E2
:10032000CF93DF931F92CDB7DEB7FC01848595850F
:1003300097FD08C02FEF3FEF358724870F90DF919F
:10034000CF910895CE0101960E941C01019719F4E6
:10035000898190E0F3CF8FEF9FEFF0CF0F931F9342
:10036000CF93DF931F92CDB7DEB78C01FC0184855C
:10037000958597FF0BC0CE0101960E941C01019745
:1003800071F4898190E0F80195878487F80184856C
:1003900095850F90DF91CF911F910F9108958FEF69
:1003A0009FEFF1CFFC018485958597FD0BC09FB72A
:1003B000F89482E08093E9008091F2009FBF90E082
:1003C000019608959FB7F89482E08093E9008091A8
:1003D000F2009FBF90E0089540916D0150916E0131
:1003E00020916B0130916C0142175307B4F4909146
:1003F000E8009570E1F39091E80092FD19C08093B8
:10040000F10080916D0190916E0101968F73992793
:10041000892B19F48EEF8093E80080916D01909103
:100420006E01019690936E0180936D0181E00895B5
:1004300080E00895EF92FF920F931F93CF93DF9385
:10044000F82E192FE62E042F81E0860F880F0E94C8
:10045000EC0183E00E94EC01CF2DD12FEC0EFD2E9C
:10046000F11CCE15DF05B9F007FF13C0FE01849122
:100470000E94EC01182F80E00E94EC01812321965C
:100480008111EFCFDF91CF911F910F91FF90EF90EE
:1004900008958881EDCF81E0F5CFDF92EF92FF9252
:1004A0000F931F93CF93DF93D82E8A01EB017B012B
:1004B000E40EF51ECE15DF0559F0D7FE12C0FE0181
:1004C00084910E94EC0121968111F4CF0FEF1FEF70
:1004D000C801DF91CF911F910F91FF90EF90DF90B6
:1004E00008958881EECF0F931F93CF93DF931F92D0
:1004F000CDB7DEB782E0898342E450E067ED70E07B
:1005000080E80E944D020E945701DC0112960D9175
:100510001C910115110589F0D801ED91FC91028023
:10052000F381E02DBE016F5F7F4FC801099597FDF4
:1005300004C0F80100851185ECCF89810F90DF910F
:10054000CF911F910F910895615030F02091F100EB
:10055000FC0120830196F8CF289A84E680937F01DE
:100560000895AF92BF92CF92DF92EF92FF920F93D6
:100570001F93CF93DF936C017B018B01040F151F39
:10058000EB015E01AE18BF08C017D10759F06991A1
:10059000D601ED91FC910190F081E02DC601099505
:1005A000892B79F7C501DF91CF911F910F91FF90B2
:1005B000EF90DF90CF90BF90AF900895282F30E05C
:1005C000F901E854FF4F9491F901EC57FE4F8491E3
:1005D0002B593E4FF9012491222309F430C099236D
:1005E000E9F091509F30D0F4E92FF0E0E650FD4F54
:1005F0000C94DA0D28032C030903200324030E03B3
:100600000E030E032F03350339033D0343030E038B
:100610004703909180009F7790938000E22FF0E055
:10062000EE0FFF1FE75BFE4FA591B4919FB7F894C3
:10063000EC91611132C080958E238C939FBF0895F9
:10064000909180009F7DE8CF90918000977FE4CFCC
:1006500094B59F7794BDE2CF94B59F7DFBCF9091E9
:1006600090009F7790939000D9CF909190009F7DBC
:10067000F9CF90919000977FF5CF9091C0009F7730
:100680009093C000CBCF9091C0009F7DF9CF909107
:10069000C200977F9093C200C1CF8E2BCECF8251E4
:1006A000E82FF0E0E455FF4FE49190917B008E2F0E
:1006B000880F880F80729F7D892B80937B00E77065
:1006C000E064E0937C0080917A00806480937A00FB
:1006D00080917A0086FDFCCF80917800909179001E
:1006E00008953FB7F8948091570190915801A091D7
:1006F0005901B0915A0126B5A89B05C02F3F19F0AA
:100700000196A11DB11D3FBFBA2FA92F982F882791
:10071000BC01CD01620F711D811D911D42E0660F6C
:10072000771F881F991F4A95D1F70895CF92DF92BE
:10073000EF92FF920E9471036B017C010E94710392
:100740006C197D098E099F09683E734081059105EA
:10075000A8F3FF90EF90DF90CF9008958F929F9233
:10076000AF92BF92CF92DF92EF92FF920F931F93BF
:10077000CF93DF936C017B018A0180910B01882369
:1007800009F458C080918001882309F453C08091F6
:10079000720180FF05C08091E00082608093E000DC
:1007A000E801B12C8AEFA82E93E0892E2AE3922E3D
:1007B000209711F4BB20B9F10E944601811106C0B7
:1007C000AA94AA20B9F10E949603F2CF8C171D06B5
:1007D00011F00CF08C2F9FB7F8948092E9002091D3
:1007E000E80025FD02C09FBFE3CF282F30E0C21BE9
:1007F000D30BF701815020F041914093F100FACFE3
:10080000E20EF31EBB2021F09092E800B12CEBCF5A
:100810008091E80085FDE7CF9092E800BB24B39477
:10082000209709F3F3CF5D9A84E680937101101647
:1008300011063CF081E090E0F6019383828310E0A2
:1008400000E0C801DF91CF911F910F91FF90EF90D1
:10085000DF90CF90BF90AF909F908F9008952FB76B
:10086000F8946091530170915401809155019091D9
:1008700056012FBF0895089590E080E00895FC018F
:1008800001900020E9F73197AF01481B590BBC01DB
:1008900081ED91E00C94B1028F929F92AF92BF9242
:1008A0000F931F93CF93DF93CDB7DEB7A1970FB60A
:1008B000F894DEBF0FBECDBF19A2423008F44AE063
:1008C0008E010F5D1F4F842E912CB12CA12CA50100
:1008D00094010E94B80DE62FB901CA01EA30F4F480
:1008E000E05DD801EE938D01232B242B252B79F786
:1008F00090E080E0109719F0CD010E943F04A1968E
:100900000FB6F894DEBF0FBECDBFDF91CF911F9120
:100910000F91BF90AF909F908F900895E95CE1CFC9
:10092000CF93DF93EC0160E08E810E94DE0261E0F4
:100930008E810E94DE0260E08E810E94DE028BE8E2
:1009400091E00197F1F7DF91CF910895CF92DF9277
:10095000EF92FF920F931F93CF93DF936C017C0173
:1009600087E0E80EF11CD0E0C0E0062F10E0B801EF
:100970000C2E02C0759567950A94E2F76170F70135
:1009800081917F010E94DE022196C430D10579F762
:10099000C601DF91CF911F910F91FF90EF90DF90F3
:1009A000CF900C949004CF92DF92EF92FF920F932E
:1009B0001F93CF93DF93EC01F62E642F8C810E945E
:1009C000DE028D818F3F19F060E00E94DE020F2D64
:1009D00010E08F8584FF25C06E0187E0C80ED11C12
:1009E000F12CE12CB8010E2C02C0759567950A9484
:1009F000E2F76170F60181916F010E94DE02FFEF64
:100A0000EF1AFF0A88E0E816F10461F7CE01DF91E2
:100A1000CF911F910F91FF90EF90DF90CF900C94AA
:100A20009004B80184E0759567958A95E1F7CE0149
:100A30000E94A6046F2DCE01DF91CF911F910F91DF
:100A4000FF90EF90DF90CF900C94A60440E0682FC9
:100A500081ED91E00C94D304CF93DF93823029F49D
:100A60009091E00198609093E0018093E4011092EE
:100A7000E50180E48093E60180E18093E70180E571
:100A80008093E8018091D5010E94FD008091D601FC
:100A90008F3F11F00E94FD008091D7010E94FD0060
:100AA000C1EDD1E09E01215D31408091E00184FDE6
:100AB0000AC084E090E02196281739073CF48E8123
:100AC0000E94FD00EFCF88E090E0F5CF8BE39DE042
:100AD0000197F1F760E08091D5010E94DE0260E0AD
:100AE0008091D7010E94DE028091D6018F3F19F0DC
:100AF00060E00E94DE028091E00184FD39C063E085
:100B000081ED91E00E94A604CBE4D6E4CE010197EA
:100B1000F1F763E081ED91E00E94A6042197F1F7DF
:100B200063E081ED91E00E94A60483E592E00197E5
:100B3000F1F762E081ED91E00E94A6048091E0016E
:100B400080620E94260584E08093E1018CE00E948F
:100B5000260581E00E9426058BE39FE10197F1F7CE
:100B600082E08093E20186E0DF91CF910C9426052C
:100B700080620E9426058BE496E40197F1F780914C
:100B8000E00180620E94260583E592E00197F1F77B
:100B90008091E00180620E942605D0CF9091E4010F
:100BA000691710F06FEF690FE62FF0E0EF52FE4F7C
:100BB0009489890F80680C94260541E00E94D30433
:100BC00081E090E008954F925F926F927F928F92B2
:100BD0009F92AF92BF92CF92DF92EF92FF920F93CC
:100BE0001F93CF936B017C01742EAC019B010E947B
:100BF000B30D882399F081E391E0CF911F910F917C
:100C0000FF90EF90DF90CF90BF90AF909F908F902C
:100C10007F906F905F904F900C943F044601570176
:100C2000E894B7F82FEF3FEF4FE75FE7C501B40156
:100C30000E94B30D81110DC02FEF3FEF4FE75FE72B
:100C4000C501B4010E94E90B18161CF485E391E07C
:100C5000D4CF2FEF3FEF4FE75FE4C701B6010E940B
:100C6000410D18161CF489E391E0C7CF2FEF3FEF39
:100C70004FE75FECC701B6010E94E90B87FDF3CF98
:100C800020E030E0A901C701B6010E94E90B10E0A5
:100C900000E087FF0CC041E06DE281ED91E00E9431
:100CA000D304F7FAF094F7F8F09401E010E0C0E014
:100CB00060E070E080E09FE37C1641F020E030E0EF
:100CC00040E251E40E94EE0BCF5FF6CFA701960100
:100CD0000E947D0B4B015C010E94600C2B013C01CA
:100CE0004AE00E944C04080F191FCC23C9F1C3012C
:100CF000B2010E948F0C9B01AC01C501B4010E949E
:100D00007C0B4B015C0141E06EE281ED91E00E94C1
:100D1000D3040F5F1F4FC15018F120E030E040E2D4
:100D200051E4C501B4010E94460D2B013C010E9413
:100D3000600C4B01B12CA12C4AE0C501B4010E940A
:100D40004C04080F191FC501B4010E948F0C9B01B0
:100D5000AC01C301B2010E947C0B4B015C01DBCFF3
:100D6000C801CF911F910F91FF90EF90DF90CF902E
:100D7000BF90AF909F908F907F906F905F904F90BB
:100D800008951F920F920FB60F9211248F939F9385
:100D90008091E1009091E100937F9093E10083FFC7
:100DA0000FC01092E90091E09093EB001092EC00DC
:100DB00092E39093ED001092800198E09093F00000
:100DC00082FF22C093E09093E9009091F200992372
:100DD00019F09AE39093E80090917101992341F002
:100DE00090917101915090937101911101C05D98A2
:100DF00090917F01992341F090917F0191509093C0
:100E00007F01911101C0289884FF18C08091E200F1
:100E10008E7E81608093E2008091E1008F7E8093DE
:100E2000E100809172018E7E8061809372019F91BA
:100E30008F910F900FBE0F901F90189580FFF7CFE6
:100E40008091E2008E7E80618093E2008091E100DB
:100E50008E7E8093E100809172018E7E8160E5CF6D
:100E60001F920F920FB60F921124CF92DF92EF9242
:100E7000FF920F931F932F933F934F935F936F9323
:100E80007F938F939F93AF93BF93EF93FF93CF93F2
:100E9000DF93CDB7DEB76C97DEBFCDBF1092E90010
:100EA0008091E80083FF25C068E0CE0145960E944E
:100EB000A40282EF8093E8008D8987FF39C090916A
:100EC000E80090FFFCCF982F907609F034C19E89FE
:100ED0004F89588D2F89F88C911131C0803861F578
:100EE000809170018093F1001092F1008EEF809359
:100EF000E8006C960FB6F894DEBF0FBECDBFDF9151
:100F0000CF91FF91EF91BF91AF919F918F917F9181
:100F10006F915F914F913F912F911F910F91FF9092
:100F2000EF90DF90CF900F900FBE0F901F9018950D
:100F30009EEF9093E800C7CF1092F100D5CF91308B
:100F400059F48111D3CF4130510581F68091700160
:100F50008D7F80937001CACF933049F48111C6CF41
:100F60004130510519F6809170018260F2CF9530C1
:100F700041F48091E80080FFFCCF20682093E300DB
:100F8000B5CF963009F0A9C00B8D1C8D22E01092D0
:100F9000E90010926E0110926D01F2122EC01092B3
:100FA0006C0110926B010E9473021F8299E0998379
:100FB000FA8291E09E8390EA98879AEF9987209130
:100FC0006D0130916E01275F3F4F3C832B838D83F2
:100FD0001092E90010926E0110926D0110936C0155
:100FE00000936B0149E050E0BE016F5F7F4F80E0EE
:100FF0000E944D020E94730279CF10936C010093FE
:101000006B010E945701DC0112960D911C91011594
:10101000110509F451C1D801ED91FC910480F581CD
:10102000E02DBE016B5E7F4FC8010995009709F066
:101030003EC1F80100851185EACFF3E0FF120EC032
:101040008F89882309F440C0823061F440E86DE064
:101050008BE391E00E941A02811148CF81E28093D4
:10106000EB0047CF813029F440E86BE08FE291E05C
:10107000F1CF833099F70E945701DC011296ED9071
:10108000FC908E010F5F1F4F6801E114F10479F0AD
:10109000D701ED91FC910680F781E02DB801C701E1
:1010A0000995080F111DF701E084F184EECFD801F6
:1010B0001C92F60101900020E9F73197BF016C19ED
:1010C0007D0940E0C601C6CF69E171E0FB014491B2
:1010D00050E080E80E944D0209CF973009F4BECF5E
:1010E000983021F481E08093F10000CF993009F02D
:1010F000FDCE837009F0B2CFEDE0F1E081E031E0A8
:1011000096E32191222371F08093E9003093EB0064
:10111000DF0111972C912093EC009093ED008F5FED
:10112000873079F78EE78093EA001092EA008F8982
:1011300080938001DBCE8B8D9C8D1092E900109204
:101140006E0110926D0190936C0180936B01898DFB
:10115000811192C08E899D89913A49F4813209F0BA
:101160007DCF47E050E064E071E080E0B3CF9132A2
:1011700009F074CF833269F48F89988DB0E0A0E0D4
:101180008093000190930101A0930201B0930301A9
:10119000ADCE803269F48091E80082FFFCCF67E039
:1011A00084E091E00E94A4028BEF8093E8009ECE41
:1011B000823209F09BCE8F8980930B01EEEFFFE71F
:1011C000859194918B3F9C4D51F1E0E0F8E0809146
:1011D000040190910501A0910601B0910701803BA7
:1011E0009440A105B105F1F480910B0180FD1AC076
:1011F000EE3F8AE0F80789F587E797E791838083D8
:101200008091600080936F0188E19BE00FB6F894B5
:10121000A895809360000FBE9093600067CEEEEFBC
:10122000FAE0D5CF808191818737974709F05ECE6C
:10123000A8958091600088618093600080916F0123
:1012400080936000EE3F2AE0F20789F08091FE0A69
:101250009091FF0A9183808349CE80819181873765
:10126000980751F29093FF0A8093FE0AC5CF10921F
:10127000FF0A1092FE0A3ACE0E945701DC01129634
:101280000D911C910115110509F4E8CED801ED91DD
:10129000FC910190F081E02DBE016B5E7F4FC80193
:1012A0000995811123CEF80100851185EBCF181621
:1012B00019060CF41BCED2CEF1E0FF12BECE6DE1CA
:1012C00071E004CF1F920F920FB60F9211242F934B
:1012D0003F938F939F93AF93BF93809153019091CE
:1012E0005401A0915501B09156013091520123E073
:1012F000230F2D3758F50196A11DB11D20935201E2
:101300008093530190935401A0935501B0935601DB
:101310008091570190915801A0915901B0915A01C3
:101320000196A11DB11D8093570190935801A09380
:101330005901B0935A01BF91AF919F918F913F9105
:101340002F910F900FBE0F901F90189526E8230F36
:101350000296A11DB11DD2CFE1E8F1E01382128205
:1013600088EE93E0A0E0B0E084839583A683B78302
:1013700087E191E0918380838FEF9FEF958784874A
:10138000E1EDF1E01382128289E291E091838083A2
:1013900082E084838FEF858383E0868384E0878384
:1013A00085E0808786E0818787E0828713861486C0
:1013B00015861686178681E00C942C05789484B5E2
:1013C000826084BD84B5816084BD85B5826085BD41
:1013D00085B5816085BD80916E00816080936E00CF
:1013E00010928100809181008260809381008091C1
:1013F0008100816080938100809180008160809372
:101400008000809191008260809391008091910092
:101410008160809391008091900081608093900022
:101420008091C10084608093C1008091C10082607E
:101430008093C1008091C10081608093C100809140
:10144000C30081608093C3008091C000826080935C
:10145000C0008091C20081608093C20080917A00B8
:10146000846080937A0080917A00826080937A0011
:1014700080917A00816080937A0080917A00806800
:1014800080937A0010928001109270011092720184
:101490008091D70081608093D70080EA8093D80044
:1014A00089B5806189BD89B5826089BD09B400FEB6
:1014B000FDCF0E9496038091D8008F7C806180933D
:1014C000D8008091E000807F8093E0008091E1006F
:1014D0008E7E8093E1008DE08093E200559A209A01
:1014E0005D9828988CE00E94FD0061E08CE00E94ED
:1014F000DE028BE00E94FD0061E08BE00E94DE02D4
:1015000082E00E942C050E942F0460936701709373
:1015100068018093690190936A010E942F0460938F
:101520005B0170935C0180935D0190935E0181E0AB
:101530000E9426058BE39FE10197F1F760E080E0D0
:101540000E94CE058DE391E00E943F0461E080E0BF
:101550000E94CE0586E491E00E943F04C0E0D0E006
:101560000E942F04AB01BC0180916701909168013A
:10157000A0916901B0916A01C296A11DB11D8417A5
:101580009507A607B70708F06DC00E942F04609367
:101590006701709368018093690190936A0182E109
:1015A0000E944F03BC01990F880B990B0E94910C6C
:1015B00020E030E040EA50E40E94460D20E030E0B8
:1015C00040E85AE30E94460D2CE83EE24AEB5DE318
:1015D0000E94EE0B60936301709364018093650138
:1015E0009093660183E10E944F03BC01990F880B21
:1015F000990B0E94910C20E030E040EA50E40E94F8
:10160000460D20E030E040E85AE30E94460D2CE809
:101610003EE24AEB5DE30E94EE0B6B017C01C0925F
:101620005F01D0926001E0926101F092620126E6D2
:1016300036E646E651E40E94410D60E018160CF0D3
:1016400061E08CE00E94DE0220E030E040E251E404
:10165000C701B6010E94E90B60E087FF61E08BE003
:101660000E94DE020E942F04AB01BC0180915B014D
:1016700090915C01A0915D01B0915E01C296A11DA7
:10168000B11D84179507A607B70780F50E942F04A0
:1016900060935B0170935C0180935D0190935E01A8
:1016A00060E089E00E94CE05609163017091640161
:1016B000809165019091660142E00E94E3058FE40C
:1016C00091E00E943F0461E089E00E94CE056091B4
:1016D0005F0170916001809161019091620142E02F
:1016E0000E94E3058FE491E00E943F04209709F4F3
:1016F00037CF0E94000034CF5058BB27AA270E9442
:10170000940B0C94070D0E94F90C38F00E94000D08
:1017100020F039F49F3F19F426F40C94F60C0EF4E3
:10172000E095E7FB0C94F00CE92F0E94180D58F39C
:10173000BA17620773078407950720F079F4A6F5B6
:101740000C943A0D0EF4E0950B2EBA2FA02D0B0140
:10175000B90190010C01CA01A0011124FF27591BF6
:1017600099F0593F50F4503E68F11A16F040A22FFC
:10177000232F342F4427585FF3CF4695379527956D
:10178000A795F0405395C9F77EF41F16BA0B620B6C
:10179000730B840BBAF09150A1F0FF0FBB1F661FB3
:1017A000771F881FC2F70EC0BA0F621F731F841FF6
:1017B00048F4879577956795B795F7959E3F08F01C
:1017C000B0CF9395880F08F09927EE0F97958795DE
:1017D00008950E94CC0C08F481E008950E94020C48
:1017E0000C94070D0E94000D58F00E94F90C40F077
:1017F00029F45F3F29F00C94F00C51110C943B0D2F
:101800000C94F60C0E94180D68F39923B1F355233C
:1018100091F3951B550BBB27AA2762177307840703
:1018200038F09F5F5F4F220F331F441FAA1FA9F399
:1018300035D00E2E3AF0E0E832D091505040E69587
:10184000001CCAF72BD0FE2F29D0660F771F881FE8
:10185000BB1F261737074807AB07B0E809F0BB0BDB
:10186000802DBF01FF2793585F4F3AF09E3F5105EF
:1018700078F00C94F00C0C943B0D5F3FE4F3983E31
:10188000D4F3869577956795B795F7959F5FC9F7D8
:10189000880F911D9695879597F90895E1E0660F59
:1018A000771F881FBB1F621773078407BA0720F0D2
:1018B000621B730B840BBA0BEE1F88F7E09508953B
:1018C0000E94200D88F09F5798F0B92F9927B751A3
:1018D000B0F0E1F0660F771F881F991F1AF0BA95D4
:1018E000C9F714C0B13091F00E943A0DB1E00895EB
:1018F0000C943A0D672F782F8827B85F39F0B93FDD
:10190000CCF3869577956795B395D9F73EF4909586
:101910008095709561957F4F8F4F9F4F0895E89404
:1019200009C097FB3EF490958095709561957F4F27
:101930008F4F9F4F9923A9F0F92F96E9BB279395D5
:10194000F695879577956795B795F111F8CFFAF4E5
:10195000BB0F11F460FF1BC06F5F7F4F8F4F9F4F16
:1019600016C0882311F096E911C0772321F09EE874
:10197000872F762F05C0662371F096E8862F70E0DA
:1019800060E02AF09A95660F771F881FDAF7880FB4
:101990009695879597F90895990F0008550FAA0B0A
:1019A000E0E8FEEF16161706E807F907C0F0121672
:1019B0001306E407F50798F0621B730B840B950B75
:1019C00039F40A2661F0232B242B252B21F40895CA
:1019D0000A2609F4A140A6958FEF811D811D089567
:1019E00097F99F6780E870E060E008959FEF80ECD2
:1019F000089500240A941616170618060906089575
:101A000000240A9412161306140605060895092EDA
:101A10000394000C11F4882352F0BB0F40F4BF2B49
:101A200011F460FF04C06F5F7F4F8F4F9F4F089589
:101A300057FD9058440F551F59F05F3F71F047957F
:101A4000880F97FB991F61F09F3F79F08795089564
:101A5000121613061406551FF2CF4695F1DF08C083
:101A6000161617061806991FF1CF869571056105A0
:101A700008940895E894BB2766277727CB0197F948
:101A800008950E94CC0C08F48FEF08950E94590D20
:101A90000C94070D0E94F90C38F00E94000D20F004
:101AA000952311F00C94F00C0C94F60C11240C946A
:101AB0003B0D0E94180D70F3959FC1F3950F50E0F8
:101AC000551F629FF001729FBB27F00DB11D639FF0
:101AD000AA27F00DB11DAA1F649F6627B00DA11D96
:101AE000661F829F2227B00DA11D621F739FB00D3C
:101AF000A11D621F839FA00D611D221F749F3327AC
:101B0000A00D611D231F849F600D211D822F762F44
:101B10006A2F11249F5750409AF0F1F088234AF021
:101B2000EE0FFF1FBB1F661F771F881F915050408D
:101B3000A9F79E3F510580F00C94F00C0C943B0DDE
:101B40005F3FE4F3983ED4F3869577956795B79514
:101B5000F795E7959F5FC1F7FE2B880F911D96952E
:101B6000879597F908950E94CC0C880B990B0895DE
:101B7000A1E21A2EAA1BBB1BFD010DC0AA1FBB1F91
:101B8000EE1FFF1FA217B307E407F50720F0A21B03
:101B9000B30BE40BF50B661F771F881F991F1A9470
:101BA00069F760957095809590959B01AC01BD019A
:101BB000CF010895EE0FFF1F0590F491E02D0994D9
:041BC000F894FFCFC7
:101BC400FFFFFFFF00E100000000000000C1808172
:101BD400000000000000006B01AE038C018101D203
:101BE400019001AE0100000000DD05B1023C043BA0
:101BF400046E616E00696E66006F76660020205088
:101C0400616E656C3A00426174746572793A00568B
:021C14002000AE
:00000001FF
