:100000000C9472000C949A000C949A000C949A0030
:100010000C949A000C949A000C949A000C949A00F8
:100020000C949A000C949A000C949A000C949A00E8
:100030000C949A000C949A000C949A000C949A00D8
:100040000C94860C0C949A000C94540C0C942E0C6A
:100050000C949A000C949A000C949A000C949A00B8
:100060000C94D00C0C949A00005EBCE2613FDD83DE
:10007000C29C7E20A3FD1F41009D23BE46DB65F888
:100080008C11AF32CA57E974000000002400270029
:100090002A0000000000250028002B0000000008B6
:1000A000000201000003040700000000000000003F
:1000B00000000000230026002900040404040404B6
:1000C0000404020202020202030303030303010207
:1000D00004081020408001020408102001020408D6
:1000E0001020EF0D11241FBECFEFD8E0DEBFCDBF33
:1000F00012E0A0E0B1E0EEEBF0E302C005900D925B
:10010000A435B107D9F724E0A4E5B2E001C01D92FF
:10011000AD33B207E1F710E0C2E7D0E004C02197A9
:10012000FE010E945218C137D107C9F70E94940EF0
:100130000C945D180C9400002091580381E021324A
:1001400008F044C0809134038111FCCF80915703A3
:1001500092E09093340391E0909333039FEF909358
:1001600032031092310320933003A7E3B3E0E0E1C0
:10017000F3E090E0291331C010920F0390910F0328
:10018000880F892B80930F0380910E03813049F5EE
:1001900010920E0380910F038093BB008091BC00EE
:1001A00083FDF8CF85EC8093BC00809134038230CE
:1001B000E1F3809132038F3FB1F0809132038032BE
:1001C000A1F080913203803391F084E010923603E5
:1001D000109258031092350308953D9131939F5F1B
:1001E000C9CF85EEE0CF80E0F1CF82E0EFCF83E0B2
:1001F000EDCFDC01ED91FC910190F081E02D0994AF
:10020000AF92BF92CF92DF92EF92FF920F931F9324
:10021000CF93DF936C017B018B01040F151FEB0162
:100220005E01AE18BF08C017D10759F06991D60119
:10023000ED91FC910190F081E02DC6010995892B8B
:1002400079F7C501DF91CF911F910F91FF90EF904A
:10025000DF90CF90BF90AF900895FC01538D448DF7
:10026000252F30E0842F90E0821B930B541710F061
:10027000CF96089501970895FC01918D828D98176E
:1002800061F0A28DAE0FBF2FB11D5D968C91928D46
:100290009F5F9F73928F90E008958FEF9FEF089577
:1002A000FC01918D828D981731F0828DE80FF11D40
:1002B000858D90E008958FEF9FEF0895FC01918D5B
:1002C000228D892F90E0805C9F4F821B91098F7354
:1002D0009927089589E593E00E945E0121E0892B2A
:1002E00009F420E0822F089580E090E0892B29F026
:1002F0000E946A0181110C9400000895FC01A48DF4
:10030000A80FB92FB11DA35ABF4F2C91848D90E037
:1003100001968F739927848FA689B7892C93A0891A
:10032000B1898C91837080648C93938D848D9813A4
:1003300006C00288F389E02D80818F7D8083089537
:10034000EF92FF920F931F93CF93DF93EC0181E025
:10035000888F9B8D8C8D98131AC0E889F9898081CC
:1003600085FF15C09FB7F894EE89FF896083E889FF
:10037000F98980818370806480839FBF81E090E0F1
:10038000DF91CF911F910F91FF90EF900895F62E7E
:100390000B8D10E00F5F1F4F0F731127E02E8C8D18
:1003A0008E110CC00FB607FCFACFE889F98980815D
:1003B00085FFF5CFCE010E947E01F1CFEB8DEC0FD2
:1003C000FD2FF11DE35AFF4FF0829FB7F8940B8F7A
:1003D000EA89FB8980818062CFCFCF93DF93EC01E4
:1003E000888D8823B9F0AA89BB89E889F9898C911D
:1003F00085FD03C0808186FD0DC00FB607FCF7CFD9
:100400008C9185FFF2CF808185FFEDCFCE010E94D8
:100410007E01E9CFDF91CF91089590E0FC01E45691
:10042000FF4F2491FC01E253FF4F3491FC01E6544D
:10043000FF4FE491EE23C9F0222339F0233001F17C
:10044000A8F4213019F1223029F1F0E0EE0FFF1F5E
:10045000EE56FF4FA591B4918FB7F894EC916111CE
:1004600026C030953E233C938FBF08952730A9F0D6
:100470002830C9F0243049F7809180008F7D03C077
:10048000809180008F7780938000DFCF84B58F7755
:1004900084BDDBCF84B58F7DFBCF8091B0008F779B
:1004A0008093B000D2CF8091B0008F7DF9CF3E2BEA
:1004B000DACFCF93DF9390E0FC01E253FF4F24911A
:1004C00086549F4FFC0184918823D1F090E0880FDF
:1004D000991FFC01E857FF4FA591B491FC01EE561E
:1004E000FF4FC591D49161110EC09FB7F8948C91C4
:1004F000E22FE0958E238C932881E223E8839FBF2F
:10050000DF91CF9108958FB7F894EC91E22BEC93A3
:100510008FBFF6CFCF93DF93EC0161E083E00E94C1
:100520005902209731F460E083E0DF91CF910C9481
:100530000D02CF3FD10511F461E0F6CFEFE9F0E015
:10054000E491E33029F140F4E130B1F0E230D9F048
:10055000C038D1058CF7E7CFE73021F1E83051F111
:10056000E430B1F780918000806280938000D09366
:100570008B00C0938A0004C084B5806884BDC7BD69
:10058000DF91CF91089584B5806284BDC8BDF8CF56
:1005900080918000806880938000D0938900C09310
:1005A0008800EECF8091B00080688093B000C09347
:1005B000B300E6CF8091B00080628093B000C0931A
:1005C000B400DECF3FB7F8948091BE029091BF0295
:1005D000A091C002B091C10226B5A89B05C02F3FD3
:1005E00019F00196A11DB11D3FBFBA2FA92F982F59
:1005F0008827BC01CD01620F711D811D911D42E054
:10060000660F771F881F991F4A95D1F708958F921B
:100610009F92AF92BF92CF92DF92EF92FF926B01C7
:100620007C010E94E2024B015C01C114D104E1048F
:10063000F104B9F00E94E202681979098A099B095C
:10064000683E73408105910580F321E0C21AD1080C
:10065000E108F10888EE880E83E0981EA11CB11C09
:10066000E4CFFF90EF90DF90CF90BF90AF909F903E
:100670008F90089521E001C0220F6A95EAF7DC010E
:100680001C962C931C971A965C934E931997ED9198
:10069000FC910484F585E02D60E0099408950895A7
:1006A000DC01ED91FC910684F785E02D41E0099590
:1006B00081E090E00895DC01ED91FC910684F785DE
:1006C000E02D40E00994EF92FF920F931F93CF9398
:1006D000DF938B0198E0899FB0011124606482E070
:1006E00094E00E945B0383E790E00197F1F7E80153
:1006F000085F1F4F8BE9E82EF12C699182E094E0AE
:100700000E945003C7010197F1F7C017D107A9F75D
:10071000DF91CF911F910F91FF90EF9008950F936C
:100720001F93CF93DF93CDB7DEB728970FB6F8941A
:10073000DEBF0FBECDBF009130011091310120917D
:100740003201309133010D831E832F83388700914E
:100750003401109135012091360130913701098320
:100760001A832B833C8390910904691710F06FEF73
:10077000690F262F30E040910A042C0F3D1FF9012C
:10078000403199F4943089F46181680F606882E0A7
:1007900094E028960FB6F894DEBF0FBECDBFDF9170
:1007A000CF911F910F910C945B036581EECF0F9356
:1007B0001F93CF93DF93EC01423018F08C81886057
:1007C0008C834F836887222329F0413019F48C8170
:1007D00084608C8364E670E080E090E00E94070310
:1007E0006C8164FD5CC0E881F9810684F785E02DA9
:1007F00042E063E0CE0109958BE496E40197F1F7BE
:10080000E881F9810684F785E02D42E063E0CE01BE
:10081000099503E512E0C8010197F1F7E881F98134
:100820000684F785E02D42E063E0CE010995C8011A
:100830000197F1F7E881F9810684F785E02D42E020
:1008400062E0CE010995C8010197F1F76C81606201
:10085000CE010E945B038BEE90E00197F1F784E0FC
:100860008D836CE0CE010E945B0361E0CE010E94AB
:100870005B038BE39FE10197F1F782E08E8366E0F3
:10088000CE010E945B03E881F9810484F585E02DA7
:100890006FEFCE01DF91CF911F910F9109946062AC
:1008A000CE010E945B038BE496E40197F1F76C8123
:1008B0006062CE010E945B0303E512E0C80101976C
:1008C000F1F76C816062CE010E945B03BCCF08959A
:1008D00008950895DC0180E0615090F09D91982783
:1008E000E92FEF70F0E0E859FF4F2491E92FE295EE
:1008F000EF70F0E0E858FF4FE491822F8E27ECCFA5
:100900000895DC012C911196ED91FC91F894818170
:10091000822B81839281322F30959323928387E0BB
:1009200090E00197F1F781818323818383E290E056
:100930000197F1F790817894EFECF0E03197F1F7BF
:10094000922381E009F480E00895FC019081018008
:10095000F281E02D292F209560FF14C0F894828148
:10096000822382838181892B8183A3E2B0E0119766
:10097000F1F78281982B9283789487ED90E001972C
:10098000F1F70895F8948281822382838181892BF3
:100990008183AFEFB0E01197F1F78281982B9283BA
:1009A00078948FE090E0EBCFDF92EF92FF920F937D
:1009B0001F93CF93DF93EC01D62EE42E08E010E0D6
:1009C000FF24F39461E08D2D8F2109F460E0CE01C6
:1009D0000E94A504FF0C01501109A1F7E11010C0FD
:1009E000F894E981FA8191818881809589238183B6
:1009F000E981FA8192818881809589238283789424
:100A0000DF91CF911F910F91FF90EF90DF900895AC
:100A1000EF92FF920F931F93CF93DF938C017B0193
:100A200040E065E50E94D404E70188E0E80EF11C8F
:100A3000699140E0C8010E94D404CE15DF05C1F7DA
:100A4000DF91CF911F910F91FF90EF900895FC01DE
:100A500090810180F281E02DF8948181292F2095E9
:100A60008223818378943DE743E050E0315029F1BF
:100A7000DA011197F1F780818923C1F3F89482811B
:100A8000822382838181892B81837894ABE7B7E0CD
:100A90001197F1F7F894818182238183A3E1B1E07A
:100AA0001197F1F78081982381E009F080E0789434
:100AB000E3E6F6E03197F1F7089580E00895AF920C
:100AC000BF92CF92DF92EF92FF920F931F93CF933B
:100AD000DF938B01BC0180912104909122040E943C
:100AE000080540E06EEB80912104909122040E9461
:100AF000D404E801680189E0C80ED11CA09021044B
:100B0000B090220488E0E82EF12C10E001E0C5014D
:100B10000E9481048111102B000F81E0E81AF10876
:100B2000B1F71993CC16DD0649F780912104909115
:100B300022040E94270591E0813009F090E0892F7E
:100B4000DF91CF911F910F91FF90EF90DF90CF90A9
:100B5000BF90AF9008950F931F93CF93DF93CDB7BE
:100B6000DEB729970FB6F894DEBF0FBECDBF8C015C
:100B700080912104909122040E942705811102C0D6
:100B800080E01FC0BE016F5F7F4FC8010E945F05FC
:100B90008823B1F368E0CE0101960E946A0499852A
:100BA0008913EECF8D818F33B9F020F48F3141F767
:100BB00089E007C08F3521F08F3711F78CE001C035
:100BC0008BE029960FB6F894DEBF0FBECDBFDF9144
:100BD000CF911F910F9108958AE0F3CF85ED809317
:100BE000BC008091BC0084FDFCCF109234030895BA
:100BF00020919402260F3327331F21323105ECF464
:100C000020913403FC0190E080E0243069F082E020
:100C10000895A09194022191AC014C585D4FA40F0E
:100C2000B52FB11D2C930196861798F380919402ED
:100C3000680F6093940280E0089581E0089508951C
:100C4000E091BC028091BB02E81730F4F0E0EC5A6E
:100C5000FD4F808190E008958FEF9FEF0895909170
:100C6000BC028091BB022FEF3FEF981748F4E92FA9
:100C7000F0E0EC5AFD4F208130E09F5F9093BC0282
:100C8000C90108958091BB029091BC02891B990B08
:100C90000895CF92DF92EF92FF920F931F93CF931D
:100CA000DF937C01CB018A0120913503222389F057
:100CB000EB016B01C40ED51ECC15DD0569F0699101
:100CC000D701ED91FC910190F081E02DC7010995CC
:100CD000F3CF642F0E94F805C801DF91CF911F91D7
:100CE0000F91FF90EF90DF90CF900895CF93DF9317
:100CF0001F92CDB7DEB76983209135032223F9F027
:100D000020915803203258F021E030E0FC01338379
:100D1000228390E080E00F90DF91CF910895809141
:100D20003603E82FF0E0E95CFC4F998190838F5FF8
:100D3000809336038093580381E090E0ECCF61E02C
:100D4000CE0101960E94F805F7CFFC0123812223F2
:100D5000E1F08181682B6083828191E0909335037B
:100D600080935703109236031092580386EF93E056
:100D70000E9476060E949C00282F30E081E090E0DF
:100D8000232B11F090E080E0089530E020E0F6CFD2
:100D9000EF92FF920F931F93CF938C01FC0184E09D
:100DA000C0E0262F30E060FF02C09589C92BB90151
:100DB00075956795815031968111F3CF413011F4CB
:100DC000F8014489F8016585C62BC42B7801FEE043
:100DD000EF0EF11CF80162896C2BC7010E94A50679
:100DE000F801628960956C23C701CF911F910F9123
:100DF000FF90EF900C94A5060F931F93CF93DF9372
:100E0000062F0F70423041F440E0602FDF91CF9108
:100E10001F910F910C94C806142FEC0170E084E030
:100E2000759567958A95E1F7CE010E94C806412F16
:100E3000602FCE01EBCFFC0184858823A1F02185B2
:100E400032852115310521F4611107C0158606C0D0
:100E500021303105D9F76111F9CF85876585CF013B
:100E60000E960C94A5060895EF92FF920F931F9390
:100E7000CF93DF93EC01062FF42EE22E8B85888B27
:100E80001092BC021092BB021092360310925803CB
:100E90001092340311E01093330310920E0361E0BB
:100EA00082E10E940D0261E083E10E940D028091C7
:100EB000B9008E7F8093B9008091B9008D7F8093B7
:100EC000B90088E48093B80085E48093BC008EE488
:100ED00093E09093BA028093B9028FE493E09093E9
:100EE000B8028093B7028889109335038093570323
:100EF00010923603109258030E949C0081111CC06E
:100F0000198B86EF93E00E942F068E8789898823AC
:100F100039F01F861C8260E0CE010E960E94A50665
:100F20002E2D4F2D602FCE01DF91CF911F910F916C
:100F3000FF90EF900C94D703198AE8CF90E080E0FF
:100F4000089560E085E00E940D0260E086E00E9466
:100F50000D0260E087E00C940D028F929F92AF9299
:100F6000BF92CF92DF92EF92FF926091FC0270915C
:100F7000FD02072E000C880B990B0E94E11620E061
:100F800030E048EC51E40E94C5150E94A9166B019F
:100F90008090D6029090D702A090D802B090D9024B
:100FA00020E030E040E451E4C501B4010E94321673
:100FB000811143C0B601DD0C880B990B0E94E1162C
:100FC0002DEC3CEC4CE45DE30E9496176B017C0138
:100FD000AC019B0166E676E686E691E40E94C515C3
:100FE0006093E2027093E3028093E4029093E5023F
:100FF000A70196016AE979E989E591E40E94C5159E
:101000006093DE027093DF028093E0029093E1022E
:1010100080E090E0A8E3B1E48093D2029093D30201
:10102000A093D402B093D502FF90EF90DF90CF90C1
:10103000BF90AF909F908F90089520E030E040ECFB
:1010400050E4C501B4010E9432168111EDCFB60102
:10105000DD0C880B990B0E94E1162FE832EC45E776
:101060005CE30E9496176B017C01AC019B0166E674
:1010700076E686EE90E40E94C5156093E2027093D6
:10108000E3028093E4029093E502A70196016AE9E6
:1010900079E989ED90E40E94C5156093DE027093B2
:1010A000DF028093E0029093E10280E090E0A8EB01
:1010B000B0E4B2CF4AE050E030E020E08E508064EF
:1010C000A3ECB0E080937C0090917A0090649093C0
:1010D0007A0090917A0096FDFCCF90917800609113
:1010E0007900762F692F260F371FFD013197F1F711
:1010F0004150510939F7C9016AE070E00E940818AF
:10110000CB010895BF92CF92DF92EF92FF920F939F
:101110001F93CF93DF93EC01B62EC72E8D858111DF
:1011200005C0CE010E94270581110EC01B861D86B9
:101130001C8680E0DF91CF911F910F91FF90EF907F
:10114000DF90CF90BF90089540E060EFCE010E9405
:10115000D40401E0E12CD12C11E0CE010E948104E5
:10116000F82ECE010E94810491E0F91218C081305E
:1011700099F51134D8F2DB86D11002C081E08D8759
:101180008B81882399F22396EB2DFC2DCF010896B5
:1011900029912193E817F907D9F781E0CBCFEE2DFC
:1011A000F0E0F8120FC08B851817A0F4DE01AE0F27
:1011B000BF1F13968C91802379F4F12C193008F419
:1011C0001C87D12EEC0FFD1F8381902F90958923D2
:1011D00083830AC08113F1CFFE01EE0DF11D8381DF
:1011E000802B8383FF24F3946F2DCE010E94A504EE
:1011F0001F5F000F11F4E39401E087E08E1508F003
:10120000ACCFB7CF8F929F92AF92BF92CF92DF9227
:10121000EF92FF92CF93DF93CDB7DEB761970FB612
:10122000F894DEBF0FBECDBF8EE090E00E945A085A
:10123000BC01990F880B990B0E94E11628E638EE45
:101240004FE95BE30E94961720E030E040EC50E469
:101250000E94961760930A0370930B0380930C030C
:1012600090930D038FE090E00E945A08BC01990F03
:10127000880B990B0E94E11628E638EE4FE95BE3F4
:101280000E94961720E030E040EC50E40E94961750
:101290006093FE027093FF0280930003909301031A
:1012A00080E190E00E945A08BC01990F880B990BCD
:1012B0000E94E11628E638EE4FE95BE30E9496179C
:1012C00020E030E040E250E40E94C51520E030E02C
:1012D00040E250E40E94C51524EA30E74DE35EE3A6
:1012E0000E9437164B015C018092F6029092F70241
:1012F000A092F802B092F90281E190E00E945A08AF
:10130000BC01990F880B990B0E94E11628E638EE74
:101310004FE95BE30E94961720E030E040E250E4A2
:101320000E94C51524EA30E74DE35EE30E943716BC
:101330006B017C01C0920603D0920703E092080380
:10134000F092090320E030E0A901C501B4010E9438
:10135000321687FF08C01092F6021092F702109220
:10136000F8021092F90220E030E0A901C701B601AD
:101370000E94321687FF08C01092060310920703DE
:101380001092080310920903809121049091220485
:101390000E94270540E06CEC80912104909122048A
:1013A0000E94D40440911B0464E480912104909134
:1013B00022040E94D40480911D04882309F442C0B1
:1013C000E0911C04E9506EEE72E0E33038F4F0E096
:1013D000EE0FFF1FE85CFE4F6081718180911E045B
:1013E000882309F464C080911B04811160C08FB709
:1013F000F8948090C2029090C302A090C402B09072
:10140000C5028FBF6B01770FEE08FF0880912104A2
:10141000909122040E9481048130A1F02FB7F894AA
:101420008091C2029091C302A091C402B091C50202
:101430002FBF8C199D09AE09BF0988159905AA050A
:10144000BB0520F3E0912104F09122041386158658
:1014500014861286118610861782168215821482CF
:101460001382BE01665F7F4F809121049091220418
:101470000E948208811122C060E070E08EEF92EC41
:101480000E94A9167093FD026093FC0261960FB64C
:10149000F894DEBF0FBECDBFDF91CF91FF90EF90EC
:1014A000DF90CF90BF90AF909F908F900895072EC0
:1014B000000C880B990B0E940703C4CF67E0CE0194
:1014C0000A960E946A0499898913D6CF80912104D3
:1014D000909122040E942705882371F2BE016F5F5C
:1014E0007F4FCE010A960E945F05882329F268E0AB
:1014F000CE0101960E946A0499858913BDCF6A8145
:1015000070E0762F6627770F770F770F298148E0F5
:10151000249F90011124262B372B8A858031D1F40A
:10152000688570E08F81AB01481B5109CA0196950F
:10153000982F8827979587950E940818CB01409788
:10154000B90153E0660F771F5A95E1F760789C0167
:10155000260F371F213854EE35070CF48DCFB90113
:10156000330F880B990B0E94E11620E030E040E039
:101570005CE30E94961784CF0E945818FB010190EB
:101580000020E9F73197AF01461B570BDC01ED91C5
:10159000FC910280F381E02D09948F929F92AF928B
:1015A000BF92EF92FF920F931F93CF93DF93CDB72C
:1015B000DEB7A1970FB6F894DEBF0FBECDBF7C019A
:1015C000FA01CB0119A2223008F42AE08E010F5D46
:1015D0001F4F822E912CB12CA12CBF01A50194018B
:1015E0000E941C18F901CA016A300CF5605DD8012F
:1015F0006E938D01232B242B252B79F790E080E02F
:10160000109721F0BD01C7010E94BE0AA1960FB636
:10161000F894DEBF0FBECDBFDF91CF911F910F9128
:10162000FF90EF90BF90AF909F908F900895695C6E
:10163000DECFCF92DF92EF92FF920F931F93CF9363
:10164000DF9377FF1DC06A017B01EC016DE20E9410
:10165000F9008C0144275527BA014C195D096E0920
:101660007F092AE0CE010E94CD0A800F911FDF91F1
:10167000CF911F910F91FF90EF90DF90CF90089541
:101680002AE0DF91CF911F910F91FF90EF90DF90B3
:10169000CF900C94CD0A4F925F926F927F928F926F
:1016A0009F92AF92BF92CF92DF92EF92FF920F93F1
:1016B0001F93CF93DF93EC016A017B01922EAB0164
:1016C0009601CB01B6010E94031866E771E0811113
:1016D00026C026013701E89477F82FEF3FEF4FE758
:1016E0005FE7C301B2010E94031881110CC02FEF04
:1016F0003FEF4FE75FE7C301B2010E9432166AE78E
:1017000071E0181664F02FEF3FEF4FE75FE4C70179
:10171000B6010E9491171816ACF46EE771E0CE0185
:10172000DF91CF911F910F91FF90EF90DF90CF90BD
:10173000BF90AF909F908F907F906F905F904F90F1
:101740000C94BE0A2FEF3FEF4FE75FECC701B601E5
:101750000E94321687FDE1CF20E030E0A901C701E9
:10176000B6010E943216B12CA12C87FF09C06DE290
:10177000CE010E94F9005C01F7FAF094F7F8F094BA
:10178000192D60E070E080E09FE300E020E030E0B1
:1017900040E251E40E94371621E0200F01E02915B4
:1017A000A8F3A70196010E94C6152B013C010E94D7
:1017B000B0166B017C010E94DF169B01AC01C301D6
:1017C000B2010E94C5152B013C012AE0B701A60118
:1017D000CE010E94CD0A7C016EE2CE010E94F9008A
:1017E000E80EF91EEA0CFB1C115020F120E030E05D
:1017F00040E251E4C301B2010E9496172B013C0163
:101800000E94B0164B01B12CA12C2AE0B501A40115
:10181000CE010E94CD0AE80EF91EC501B4010E9456
:10182000DF169B01AC01C301B2010E94C5152B015B
:101830003C01DACFC701DF91CF911F910F91FF904B
:10184000EF90DF90CF90BF90AF909F908F907F9060
:101850006F905F904F9008950C94BE0A1F920F9264
:101860000FB60F9211242F933F934F935F936F9373
:101870007F938F939F93AF93BF93EF93FF9389E5EC
:1018800093E00E947E01FF91EF91BF91AF919F91F4
:101890008F917F916F915F914F913F912F910F9019
:1018A0000FBE0F901F9018951F920F920FB60F92B8
:1018B00011242F938F939F93EF93FF93E0916903EC
:1018C000F0916A038081E0916F03F091700382FDD3
:1018D0001BC09081809172038F5F8F73209173037F
:1018E000821741F0E0917203F0E0E75AFC4F958FC8
:1018F00080937203FF91EF919F918F912F910F90A1
:101900000FBE0F901F9018958081F4CF1F920F92F9
:101910000FB60F9211242F933F938F939F93AF9302
:10192000BF938091C2029091C302A091C402B09172
:10193000C5023091BD0223E0230F2D3758F50196E3
:10194000A11DB11D2093BD028093C2029093C302DA
:10195000A093C402B093C5028091BE029091BF02D1
:10196000A091C002B091C1020196A11DB11D80934A
:10197000BE029093BF02A093C002B093C102BF9178
:10198000AF919F918F913F912F910F900FBE0F902C
:101990001F90189526E8230F0296A11DB11DD2CFE6
:1019A0001F920F920FB60F9211242F933F934F93D4
:1019B0005F936F937F938F939F93AF93BF93EF93B7
:1019C000FF938091B900887F803609F44AC0F0F512
:1019D000883209F4A7C018F5803109F49BC0B8F427
:1019E000882309F4F9C0883009F494C0FF91EF917D
:1019F000BF91AF919F918F917F916F915F914F9127
:101A00003F912F910F900FBE0F901F901895883126
:101A100009F488C0803251F78093320314C08034B7
:101A200009F49DC040F48033B9F38833F9F680930C
:101A3000320385ECB0C0803509F485C0883509F4DF
:101A400096C0883499F60E94EE05D0CF883909F403
:101A50008CC038F5883729F050F4883611F080377B
:101A600029F683E0809334031092B60257C0883879
:101A700009F47BC0803919F0803809F0B7CF809124
:101A8000B602803208F071C0E091B60281E08E0F9C
:101A90008093B6028091BB00F0E0EA56FD4F808350
:101AA0003DC0803B39F0E0F4803A09F479C0883ACF
:101AB00009F09CCF84E08093340310929502109239
:101AC0009402E091B902F091BA02099580919402D2
:101AD00081110FC081E0809394021092740209C0BA
:101AE000803C09F4A6CF883C09F4A3CF883B09F0D9
:101AF0007DCFE091950281E08E0F80939502F0E01A
:101B0000EC58FD4F80818093BB00909195028091AD
:101B1000940229C080910F038093BB0085EC8093D1
:101B2000BC0064CF9091310380913003981758F531
:101B3000E091310381E08E0F80933103F0E0E05FAC
:101B4000FC4F8081E9CFE091310381E08E0F8093DB
:101B500031038091BB00F0E0E05FFC4F8083909107
:101B60003103809130039817C8F285E8D8CFE0910F
:101B7000310381E08E0F809331038091BB00F0E050
:101B8000E05FFC4F80838091330381115CCF81E063
:101B900080930E0384EA8093BC001092340326CF16
:101BA00085EC8093BC00109234038091B6028032A1
:101BB00030F4E091B602F0E0EA56FD4F10826091F9
:101BC000B60270E0E091B702F091B80286E992E0C7
:101BD00009951092B6020ACF1092320334CFE9E58C
:101BE000F3E01382128288EE93E0A0E0B0E08483F9
:101BF0009583A683B78322E431E03183208325ECEB
:101C000030E03587248724EC30E03787268720ECC6
:101C100030E0318B208B21EC30E0338B228B22ECB7
:101C200030E0358B248B26EC30E0378B268B118E01
:101C3000128E138E148EE6EFF3E0138212828483E9
:101C40009583A683B78384E591E09183808360E0E8
:101C50008CE00E945902EAEDF0E0E491AFE2B4E0DA
:101C6000EC93E6ECF0E0E491F0E0EE0FFF1FE055BE
:101C7000FF4F8591949112969C938E9311971B968A
:101C80001C921B971D961C921D971C961C921C97CC
:101C90001A961C921A9719961C92199718961C92CC
:101CA000189717961C92179716961C9216971596CA
:101CB0001C92159714961C92149713961C921397C6
:101CC000EBE1F4E0B783A68314821582108289E0E9
:101CD000818381E082838383138A128AE2E0F4E0C5
:101CE0001382128226E631E031832083108A9FEF2F
:101CF00097871686118A97E293871486158612862F
:101D0000118694E0928B92E0938B848B80E1858B9B
:101D100080E2868B80E4878B80E8808F50E040E013
:101D200063E0CF010C943A03CF93DF93CDB7DEB7D6
:101D300064970FB6F894DEBF0FBECDBF789484B51C
:101D4000826084BD84B5816084BD85B5826085BDB7
:101D500085B5816085BD80916E00816080936E0045
:101D60001092810080918100826080938100809137
:101D700081008160809381008091800081608093E8
:101D800080008091B10084608093B1008091B000A8
:101D900081608093B00080917A00846080937A00A3
:101DA00080917A00826080937A0080917A008160CD
:101DB00080937A0080917A00806880937A001092F4
:101DC000C100E0916903F0916A0382E08083E091B1
:101DD0006503F09166031082E0916703F091680358
:101DE0008FEC808310927103E0916D03F0916E038C
:101DF00086E08083E0916B03F0916C0380818061C9
:101E00008083E0916B03F0916C0380818860808314
:101E1000E0916B03F0916C03808180688083E09196
:101E20006B03F0916C0380818F7D8083E0912104AE
:101E3000F091220413861586148612861186108668
:101E40001782168215821482138210921F04109238
:101E5000200401E0BE016F5F7F4F809121049091CB
:101E600022040E948208882309F468C067E0CE013A
:101E700001960E946A0498858913ECCF80911B0417
:101E8000811128C080912104909122040E9427058D
:101E9000BE016F5F7F4F80912104909122040E94C8
:101EA000080540E064EB80912104909122040E9497
:101EB000D40480912104909122040E948104182F5F
:101EC00080912104909122040E942705111102C0E3
:101ED00000931B0410911C048981803109F451C6C0
:101EE000CE0101960E94AB058117C0F480911C04BD
:101EF00080931C0480911F048F5F80931F0489814D
:101F0000883231F0A8F4803119F0823209F0A2CF82
:101F1000809120048F5F809320049CCF8981803141
:101F200011F48CE0E5CFCE0101960E94AB05E0CF25
:101F30008B3371F3823409F08DCFEACF8091B100F9
:101F4000887F83608093B10061E08AE00E9459023B
:101F500061E08BE00E94590261E085E00E94590235
:101F600061E086E00E94590261E087E00E94590228
:101F700061E088E00E94590261E089E00E94590214
:101F800061E083E00E94590261E082E00E94590210
:101F900060E083E00E940D0260E082E00E940D029A
:101FA00020E044E064E182E094E00E9434076FEFB7
:101FB00082E094E00E941B0768E271E081E00E94E9
:101FC000630360E271E082E00E94630368E171E014
:101FD00083E00E94630360E171E085E00E94630397
:101FE00068E071E086E00E94630360E071E087E0F2
:101FF0000E94630361E082E094E00E945B038BE354
:102000009FE10197F1F780E0282E80E0382E01E073
:1020100010E00E940209C090FE02D090FF02E09002
:102020000003F090010320E030E048E251E4C701F2
:10203000B6010E94911718160CF060C120E030E044
:1020400040E751E4C701B6010E94321687FF56C12E
:1020500020E030E040E451E42093D6023093D702F0
:102060004093D8025093D9020E94AD0720E030E09F
:1020700040E251E460910A0370910B0380910C03DC
:1020800090910D030E943216181684F00E940209E6
:102090000E94AD071092DA021092DB021092DC026D
:1020A0001092DD0290E080E00E948A02C090FE0261
:1020B000D090FF02E0900003F09001032091E20233
:1020C0003091E3024091E4025091E502C701B6016C
:1020D0000E94321687FF30C020E030E040E05FE32E
:1020E000C701B6010E94C6159B01AC0160910A03AD
:1020F00070910B0380910C0390910D030E94911736
:102100001816D4F48091FA029091FB020197A1F481
:102110000E9402090E94AD0723E333E74CE753E432
:102120002093DA023093DB024093DC025093DD020D
:102130008CEF90E00E948A0242E050E05093FB0254
:102140004093FA0220E030E04CEC51E46091DA0276
:102150007091DB028091DC029091DD020E94911768
:1021600018160CF082C020E030E040E05FE36091A0
:10217000E2027091E3028091E4029091E5020E94F4
:10218000C61520910A0330910B0340910C03509126
:102190000D030E94321687FF68C08FB7F8944091F4
:1021A000C2025091C3026091C4027091C5028FBFF8
:1021B0000E9402090E94AD07C090FE02D090FF026B
:1021C000E0900003F09001038090E2029090E3021F
:1021D000A090E402B090E502A5019401C701B60108
:1021E0000E94911787FD2CC020E030E040E85FE3BB
:1021F0006091DA027091DB028091DC029091DD0245
:102200000E94C5152B013C0120E030E0A9010E948D
:10221000321687FD95C04092DA025092DB0260923E
:10222000DC027092DD026091DA027091DB02809133
:10223000DC029091DD020E94A916CB010E948A0265
:10224000A5019401C701B6010E94321687FD0DC099
:102250006091DA027091DB028091DC029091DD02E4
:102260000E94A916CB010E948A0283E090E090931D
:10227000FB028093FA0220E030E040E05FE36091EF
:10228000DE027091DF028091E0029091E1020E94F3
:10229000C61520910A0330910B0340910C03509115
:1022A0000D030E94321687FF68C00E9402090E9437
:1022B000AD07C090FE02D090FF02E0900003F090C6
:1022C00001038090DE029090DF02A090E002B090C7
:1022D000E102A5019401C701B6010E94911787FD93
:1022E00038C01092DA021092DB021092DC021092D7
:1022F000DD0290E080E00E948A023FC020E030E0F2
:1023000048EA50E4C701B6010E94911718160CF074
:10231000ABCE20E030E040EF50E4C701B6010E94B0
:10232000321687FFA1CE80E090E0A8E8B1E4809368
:10233000D6029093D702A093D802B093D90294CE3C
:102340001092DA021092DB021092DC021092DD028F
:102350006ACF20E030E040E05FE3C501B4010E94B5
:10236000C5159B01AC01C701B6010E94321687FF5B
:10237000AAC31093FB020093FA028FB7F89420913E
:10238000C2023091C3024091C4025091C502298B10
:102390003A8B4B8B5C8B8FBF8091CE029091CF029A
:1023A000A091D002B091D102281B390B4A0B5B0BD4
:1023B000CA01B9010E94DF1620E030E04AE754E488
:1023C0000E9437160E94B0166D877E878F87988B84
:1023D000C090F602D090F702E090F802F090F90277
:1023E0004090FE025090FF02609000037090010345
:1023F000A3019201C701B6010E9496176093F202F1
:102400007093F3028093F4029093F5028090060398
:1024100090900703A0900803B090090380910A03ED
:1024200090910B03A0910C03B0910D0389879A87BB
:10243000AB87BC879C01AD01C501B4010E94961712
:102440006093020370930303809304039093050346
:102450006D857E858F8598890E94DF166D877E87C2
:102460008F87988B9B01AC01C701B6010E9496171C
:102470006B017C012D853E854F855889C501B401CE
:102480000E9496174B015C0120E030E041E655E4E4
:10249000C701B6010E9437169B01AC016091CA02C8
:1024A0007091CB028091CC029091CD020E94C61512
:1024B0006093CA027093CB028093CC029093CD02BA
:1024C00020E030E041E655E4C501B4010E94371632
:1024D0009B01AC016091C6027091C7028091C80255
:1024E0009091C9020E94C6156093C6027093C702FC
:1024F0008093C8029093C902A7019601C301B2015B
:102500000E94961720E030E041E655E40E9437161D
:102510009B01AC016091E6027091E7028091E802B4
:102520009091E9020E94C6156093E6027093E7025B
:102530008093E8029093E902A501940169857A8568
:102540008B859C850E94961720E030E041E655E49B
:102550000E9437169B01AC016091EA027091EB0278
:102560008091EC029091ED020E94C6156093EA0200
:102570007093EB028093EC029093ED0229893A89E3
:102580004B895C892093CE023093CF024093D002D6
:102590005093D10220E030E040EA50E469857A852A
:1025A0008B859C850E94321687FFA5C2C090D202FF
:1025B000D090D302E090D402F090D502A301920112
:1025C000C701B6010E94321687FF8CC280E090E0FE
:1025D000A0E8BFE38093EE029093EF02A093F00295
:1025E000B093F10261E082E00E940D022091DE02D0
:1025F0003091DF024091E0025091E10269857A85D5
:102600008B859C850E94911760E018160CF07DC2A6
:102610008AE00E940D0261E08BE00E940D02C090F2
:10262000D602D090D702E090D802F090D9028090E4
:10263000E2029090E302A090E402B090E502A701CC
:102640009601C301B2010E94911718160CF063C2E3
:10265000A5019401C301B2010E94321687FF5BC23B
:102660000E94A10761E086E00E940D02C090EE0288
:10267000D090EF02E090F002F090F10220E030E024
:1026800040E85FE3C701B6010E94321681115DC2C6
:1026900060E088E00E940D0261E089E00E940D0286
:1026A00062E871E089E593E00E942C0C40910A03F6
:1026B00050910B0360910C0370910D0322E030E008
:1026C00089E593E00E944B0B6AE971E089E593E0AC
:1026D0000E942C0C4091FE025091FF026091000379
:1026E0007091010322E030E089E593E00E944B0BFA
:1026F00064EB71E089E593E00E942C0C4091FC02B0
:102700005091FD02052E000C660B770B89E593E0D6
:102710000E94190B6BEB71E089E593E00E942C0C91
:102720004091E2025091E3026091E4027091E5026F
:1027300022E030E089E593E00E944B0B6BED71E005
:1027400089E593E00E942C0C4091DE025091DF025B
:102750006091E0027091E10222E030E089E593E0CF
:102760000E944B0B6CEF71E089E593E00E942C0C0A
:1027700020E030E04FE753E46091DA027091DB0231
:102780008091DC029091DD020E94371620E030E05B
:1027900048EC52E40E949617AB01BC0122E030E005
:1027A00089E593E00E944B0B6FE072E089E593E0CE
:1027B0000E942C0C61E172E089E593E00E942C0CF0
:1027C0004091FA025091FB02052E000C660B770B2C
:1027D00089E593E00E94190B68E272E089E593E0D5
:1027E0000E94BE0A6BE272E089E593E00E942C0C25
:1027F000409106035091070360910803709109030B
:1028000022E030E089E593E00E944B0B6BE372E03D
:1028100089E593E00E94BE0A68E272E089E593E0F0
:102820000E94BE0A60E080E00E948F0361E082E0C7
:1028300094E00E94500360E082E00E948F03409188
:102840000A0350910B0360910C0370910D0321E07A
:1028500030E082E094E00E944B0B6DE372E082E096
:1028600094E00E942C0C60E088E00E948F0340916D
:10287000060350910703609108037091090321E05A
:1028800030E082E094E00E944B0B6BE372E082E068
:1028900094E00E942C0C60E08EE00E948F03409137
:1028A000020350910303609104037091050321E03A
:1028B00030E082E094E00E944B0B6FE372E082E034
:1028C00094E00E942C0C61E080E00E948F0362E0A3
:1028D00082E094E00E94500361E082E00E948F0356
:1028E0004091FE025091FF0260910003709101033C
:1028F00021E030E082E094E00E944B0B6DE372E057
:1029000082E094E00E942C0C61E088E00E948F033A
:1029100065E082E094E00E94500361E089E00E945B
:102920008F034091FC025091FD02052E000C660BB6
:10293000770B82E094E00E94190B6FED82E094E047
:102940000E94500361E472E082E094E00E942C0C4B
:1029500061E08EE00E948F0362E082E094E00E94DA
:1029600050038091FA029091FB02019766E0039771
:1029700008F067E082E094E00E94500362E080E0AB
:102980000E948F0363E472E082E094E00E942C0CCA
:1029900062E082E00E948F034091F6025091F702BC
:1029A0006091F8027091F90221E030E082E094E059
:1029B0000E944B0B6BE372E082E094E00E942C0CCF
:1029C00062E088E00E948F034091F2025091F3028E
:1029D0006091F4027091F50221E030E082E094E031
:1029E0000E944B0B6FE372E082E094E00E942C0C9B
:1029F00062E08EE00E948F03C090EE02D090EF0262
:102A0000E090F002F090F10220E030E040E85FE377
:102A1000C701B6010E9432168111A7C065E472E0B9
:102A200082E094E00E942C0C62E08EE00E948F0312
:102A300069E472E082E094E00E942C0C63E080E0A4
:102A40000E948F0363E082E094E00E94500363E001
:102A500082E00E948F034091EA025091EB02609164
:102A6000EC027091ED0221E030E082E094E00E94FF
:102A70004B0B60E572E082E094E00E942C0C63E076
:102A800088E00E948F034091E6025091E702609136
:102A9000E8027091E90221E030E082E094E00E94D7
:102AA0004B0B60E572E082E094E00E942C0C211454
:102AB000310409F4AECA0E946A01882309F4A9CA44
:102AC0000E940000A6CA20E030E44CE753E42093C3
:102AD000DA023093DB024093DC025093DD028CEF8C
:102AE00090E009CCA3019201C701B6010E949117A1
:102AF00018160CF07BCD1092EE021092EF0210929D
:102B0000F0021092F10260E06ECD8BE00E940D02A7
:102B100061E08AE082CDA5019401C301B2010E9467
:102B2000911787FD05C00E94A10761E087E09CCD59
:102B3000A7019601C301B2010E94321687FF96CD0C
:102B40000E94A10761E085E08FCD20E030E0A9017F
:102B5000C701B6010E9432168111A2CD60E089E062
:102B60000E940D0261E088E099CD20E030E0A901EB
:102B7000C701B6010E943216811160CF6CE472E089
:102B800059CF1D3008F0B2C9CCC95058BB27AA276D
:102B90000E94DD150C9457170E94491738F00E94C7
:102BA000501720F039F49F3F19F426F40C9446177F
:102BB0000EF4E095E7FB0C944017E92F0E9468178C
:102BC00058F3BA17620773078407950720F079F462
:102BD000A6F50C948A170EF4E0950B2EBA2FA02DB3
:102BE0000B01B90190010C01CA01A0011124FF27BA
:102BF000591B99F0593F50F4503E68F11A16F040B5
:102C0000A22F232F342F4427585FF3CF46953795B3
:102C10002795A795F0405395C9F77EF41F16BA0B78
:102C2000620B730B840BBAF09150A1F0FF0FBB1F26
:102C3000661F771F881FC2F70EC0BA0F621F731F6F
:102C4000841F48F4879577956795B795F7959E3FCC
:102C500008F0B0CF9395880F08F09927EE0F97955D
:102C6000879508950E941C1708F481E008950E943A
:102C70004B160C9457170E94501758F00E94491792
:102C800040F029F45F3F29F00C94401751110C9447
:102C90008B170C9446170E94681768F39923B1F3B9
:102CA000552391F3951B550BBB27AA276217730772
:102CB000840738F09F5F5F4F220F331F441FAA1F06
:102CC000A9F335D00E2E3AF0E0E832D091505040C2
:102CD000E695001CCAF72BD0FE2F29D0660F771F70
:102CE000881FBB1F261737074807AB07B0E809F056
:102CF000BB0B802DBF01FF2793585F4F3AF09E3FDB
:102D0000510578F00C9440170C948B175F3FE4F357
:102D1000983ED4F3869577956795B795F7959F5F1D
:102D2000C9F7880F911D9695879597F90895E1E069
:102D3000660F771F881FBB1F621773078407BA07C8
:102D400020F0621B730B840BBA0BEE1F88F7E09523
:102D500008950E94B0166894B1110C948B170895D1
:102D60000E94701788F09F5798F0B92F9927B75194
:102D7000B0F0E1F0660F771F881F991F1AF0BA951F
:102D8000C9F714C0B13091F00E948A17B1E00895DC
:102D90000C948A17672F782F8827B85F39F0B93FCE
:102DA000CCF3869577956795B395D9F73EF49095D2
:102DB0008095709561957F4F8F4F9F4F0895E89450
:102DC00009C097FB3EF490958095709561957F4F73
:102DD0008F4F9F4F9923A9F0F92F96E9BB27939521
:102DE000F695879577956795B795F111F8CFFAF431
:102DF000BB0F11F460FF1BC06F5F7F4F8F4F9F4F62
:102E000016C0882311F096E911C0772321F09EE8BF
:102E1000872F762F05C0662371F096E8862F70E025
:102E200060E02AF09A95660F771F881FDAF7880FFF
:102E30009695879597F90895990F0008550FAA0B55
:102E4000E0E8FEEF16161706E807F907C0F01216BD
:102E50001306E407F50798F0621B730B840B950BC0
:102E600039F40A2661F0232B242B252B21F4089515
:102E70000A2609F4A140A6958FEF811D811D0895B2
:102E800097F99F6780E870E060E008959FEF80EC1D
:102E9000089500240A9416161706180609060895C0
:102EA00000240A9412161306140605060895092E26
:102EB0000394000C11F4882352F0BB0F40F4BF2B95
:102EC00011F460FF04C06F5F7F4F8F4F9F4F0895D5
:102ED00057FD9058440F551F59F05F3F71F04795CB
:102EE000880F97FB991F61F09F3F79F087950895B0
:102EF000121613061406551FF2CF4695F1DF08C0CF
:102F0000161617061806991FF1CF869571056105EB
:102F100008940895E894BB2766277727CB0197F993
:102F200008950E941C1708F48FEF08950E94A917B6
:102F30000C9457170E94491738F00E94501720F040
:102F4000952311F00C9440170C94461711240C94FF
:102F50008B170E94681770F3959FC1F3950F50E08F
:102F6000551F629FF001729FBB27F00DB11D639F3B
:102F7000AA27F00DB11DAA1F649F6627B00DA11DE1
:102F8000661F829F2227B00DA11D621F739FB00D87
:102F9000A11D621F839FA00D611D221F749F3327F7
:102FA000A00D611D231F849F600D211D822F762F90
:102FB0006A2F11249F5750409AF0F1F088234AF06D
:102FC000EE0FFF1FBB1F661F771F881F91505040D9
:102FD000A9F79E3F510580F00C9440170C948B1775
:102FE0005F3FE4F3983ED4F3869577956795B79560
:102FF000F795E7959F5FC1F7FE2B880F911D96957A
:10300000879597F908950E941C17880B990B0895CE
:1030100097FB072E16F4009407D077FD09D00E9485
:103020003E1807FC05D03EF4909581959F4F08957A
:10303000709561957F4F0895A1E21A2EAA1BBB1BC4
:10304000FD010DC0AA1FBB1FEE1FFF1FA217B30774
:10305000E407F50720F0A21BB30BE40BF50B661F8A
:10306000771F881F991F1A9469F76095709580954E
:1030700090959B01AC01BD01CF010895AA1BBB1B1C
:1030800051E107C0AA1FBB1FA617B70710F0A61B68
:10309000B70B881F991F5A95A9F780959095BC0189
:1030A000CD010895EE0FFF1F0590F491E02D0994D6
:0E30B00081E090E0F8940C945D18F894FFCF46
:1030BE0000110A040A1100000A1F1111110E040456
:1030CE00040A0A0E0E1F1F0E0204081F0204080037
:1030DE000E1B11111111111F1F151F151F151F008A
:1030EE0000401454004010505E00BC0077010000F8
:1030FE000000A00100012D01ED015E013C01500117
:10310E0000000000760649069E071F0642062F069F
:10311E00200600000000500300019E0769043407DA
:10312E003A031B07FC066E616E00696E66006F76D1
:10313E0066002020202020202020536F6C617220FA
:10314E00566F6C746167653A200020202020202085
:10315E0020204261747465727920566F6C746167B9
:10316E00653A200054656D703A2000202020202002
:10317E0020202042756C6B20566F6C746167652041
:10318E00536574706F696E743A20002020202020E1
:10319E00202020466C6F617420566F6C74616765D9
:1031AE0020536574706F696E743A200020202020C1
:1031BE002020202050574D20447574793A20002548
:1031CE000020202020202020204368617267652087
:1031DE0053746167653A20000D0A00536F6C61727B
:1031EE002043757272656E743A2000410056005786
:1031FE000043004C00202020004F4E004F4646005A
:04320E0057680000FD
:107E0000112484B714BE81FFF0D085E080938100F7
:107E100082E08093C00088E18093C10086E0809377
:107E2000C20080E18093C4008EE0C9D0259A86E02C
:107E300020E33CEF91E0309385002093840096BBD3
:107E4000B09BFECF1D9AA8958150A9F7CC24DD24C4
:107E500088248394B5E0AB2EA1E19A2EF3E0BF2EE7
:107E6000A2D0813461F49FD0082FAFD0023811F036
:107E7000013811F484E001C083E08DD089C08234E0
:107E800011F484E103C0853419F485E0A6D080C0E4
:107E9000853579F488D0E82EFF2485D0082F10E0AE
:107EA000102F00270E291F29000F111F8ED06801E7
:107EB0006FC0863521F484E090D080E0DECF843638
:107EC00009F040C070D06FD0082F6DD080E0C81688
:107ED00080E7D80618F4F601B7BEE895C0E0D1E017
:107EE00062D089930C17E1F7F0E0CF16F0E7DF06D8
:107EF00018F0F601B7BEE89568D007B600FCFDCFD4
:107F0000A601A0E0B1E02C9130E011968C91119780
:107F100090E0982F8827822B932B1296FA010C0160
:107F200087BEE89511244E5F5F4FF1E0A038BF0790
:107F300051F7F601A7BEE89507B600FCFDCF97BE46
:107F4000E89526C08437B1F42ED02DD0F82E2BD052
:107F50003CD0F601EF2C8F010F5F1F4F84911BD097
:107F6000EA94F801C1F70894C11CD11CFA94CF0C13
:107F7000D11C0EC0853739F428D08EE10CD085E9AC
:107F80000AD08FE07ACF813511F488E018D01DD067
:107F900080E101D065CF982F8091C00085FFFCCF94
:107FA0009093C60008958091C00087FFFCCF809118
:107FB000C00084FD01C0A8958091C6000895E0E648
:107FC000F0E098E1908380830895EDDF803219F02E
:107FD00088E0F5DFFFCF84E1DECF1F93182FE3DFCA
:107FE0001150E9F7F2DF1F91089580E0E8DFEE27F6
:047FF000FF270994CA
:027FFE00040479
:0400000300007E007B
:00000001FF
